:020000040800F2
:10000000005000200D1500081D14000823140008DE
:10001000291400082F1400083514000800000000FF
:100020000000000000000000000000003B14000879
:100030004714000800000000531400085F14000873
:1000400055150008551500085515000855150008E8
:1000500055150008551500085515000855150008D8
:1000600055150008551500085515000855150008C8
:1000700055150008551500085515000855150008B8
:1000800055150008551500085515000855150008A8
:100090005515000855150008551500085515000898
:1000A0005515000855150008551500085515000888
:1000B0006D14000881140008551500085515000836
:1000C0005515000855150008551500085515000868
:1000D0005515000855150008551500085515000858
:1000E00055150008551500085515000800000000BA
:1000F0000000000000000000000000000000000000
:0C01000000000000000000005FF808F1A3
:10010C0010B5054C237833B9044B13B10448AFF345
:10011C0000800123237010BDA4000020000000000B
:10012C006034000808B5034B1BB103490348AFF317
:10013C00008008BD00000000A8000020603400080A
:10014C0080B582B000AF00237B6076E03F4A7B68CD
:10015C00134419783E4A7B6813440A461A703D4A88
:10016C007B6813441978394A7B6813440A461A7021
:10017C00394A7B6852F8232038497B6851F8233080
:10018C009BB21946104601F0D5FC03461946314A7C
:10019C007B6813440A461A702E4A7B6813441A78FB
:1001AC002A497B680B441B789A422DD1274A7B68DD
:1001BC0013441A7826497B680B441B789A4223D146
:1001CC00244A7B6813441A7825497B680B441B78B6
:1001DC009A422ED01F4A7B6813441978204A7B68B8
:1001EC0013440A461A701E4A7B6813441B78002B72
:1001FC001FD11C4A7B68012142F823101A4A7B68E4
:10020C00642142F8231014E0174A7B6852F823301B
:10021C005A1E15497B6841F82320134A7B6852F813
:10022C002330002B06DC0E4A7B68134401221A7023
:10023C0000E000BF7B6801337B607B68032B85DDAE
:10024C0000BF00BF0837BD4680BD00BFD4000020F2
:10025C00D8000020D0000020040000201400002052
:10026C0000000020DC000020C000002080B483B01F
:10027C0000AF78607B68032B02DC7B68002B01DA13
:10028C0000230DE0094A7B6852F82330012B06D17C
:10029C00064A7B68002142F82310012300E000236A
:1002AC0018460C37BD4680BC704700BFDC000020F0
:1002BC0080B400AF044B1A68044B1B685A6300BF30
:1002CC00BD4680BC704700BFF80000200C01002028
:1002DC0080B500AF00224FF48061054801F041FC6D
:1002EC0000220821034801F03CFC00BF80BD00BF88
:1002FC0000080140000C014080B500AF0022202115
:10030C00044801F02EFC00221021024801F029FCC7
:10031C0000BF80BD000C014080B500AF01224FF43E
:10032C008061054801F01DFC00220821034801F002
:10033C0018FC00BF80BD00BF00080140000C01404C
:10034C0080B500AF01224FF48061054801F009FC33
:10035C0001220821034801F004FC00BF80BD00BF4E
:10036C0000080140000C014080B500AF00224FF4A2
:10037C008061054801F0F5FB01220821034801F0DA
:10038C00F0FB00BF80BD00BF00080140000C014025
:10039C0080B500AF01222021044801F0E2FB0022CD
:1003AC001021024801F0DDFB00BF80BD000C0140B4
:1003BC0080B500AF01222021044801F0D2FB0122BC
:1003CC001021024801F0CDFB00BF80BD000C0140A4
:1003DC0080B500AF00222021044801F0C2FB0122AD
:1003EC001021024801F0BDFB00BF80BD000C014094
:1003FC0080B500AF4FF48061044801F0CAFB2021A6
:10040C00034801F0C6FB00BF80BD00BF00080140DF
:10041C00000C014080B500AF4FF48061084801F03A
:10042C00B8FB0821074801F0B4FB2021054801F076
:10043C00B0FB1021034801F0ACFB00BF80BD00BF36
:10044C0000080140000C014080B500AF08210448B1
:10045C0001F09FFB1021024801F09BFB00BF80BD07
:10046C00000C014080B500AF00224FF480610548BC
:10047C0001F077FB00224FF48071034801F071FB0F
:10048C0000BF80BD000C01400008014080B500AFEA
:10049C0001224FF48061054801F063FB00224FF408
:1004AC008071034801F05DFB00BF80BD000C014072
:1004BC000008014080B500AF00224FF48061054870
:1004CC0001F04FFB01224FF48071034801F049FB0E
:1004DC0000BF80BD000C01400008014080B400AF9B
:1004EC00074B1B680133064A1360054B1B68632BD3
:1004FC0002DD034B01221A6000BFBD4680BC704771
:10050C00F000002080B485B000AFF860B9607A606C
:10051C005C4B1B68FA689A4219DD5A4B1B68FA68E7
:10052C0092FBF3F3584A126802FB03F3564A13602A
:10053C00544B1B68FA6892FBF3F3544A126802FBA3
:10054C0003F3524A13604F4AFB68136094E04E4B1E
:10055C001B68BA689A4219DD4B4B1B68BA6892FB50
:10056C00F3F3484A126802FB03F3464A1360464B06
:10057C001B68BA6892FBF3F3444A126802FB03F35C
:10058C00424A1360404ABB68136075E03F4B1B68DE
:10059C007A689A4218DD3D4B1B687A6892FBF3F33C
:1005AC00384A126802FB03F3364A1360374B1B6858
:1005BC007A6892FBF3F3BA6802FB03F3324A1360D6
:1005CC00324A7B68136057E02E4B1B68FA689A42DC
:1005DC0019DAFB682E4A82FB03125210DB17D31A6E
:1005EC005B00294A1360FB68294A82FB03125210F4
:1005FC00DB17D21A13465B001344244A1360214ABA
:10060C00FB68136038E0204B1B68BA689A4217DA13
:10061C00BB68DA0F13445B101A4613469B00134455
:10062C00184A1360BB68DA0F13445B101A46134662
:10063C005B001344154A1360134ABB6813601BE03C
:10064C00124B1B687A689A4216DA7B68114A82FB55
:10065C000312DB17D21A13469B001344094A13608A
:10066C007B680C4A82FB0312DB17D31A5B00064A29
:10067C001360064A7B68136000BF1437BD4680BC0C
:10068C00704700BF24000020280000202C00002010
:10069C00676666665655555580B500AF874B1B6827
:1006AC000C2B00F2C18201A252F823F0ED060008D7
:1006BC0027070008F1070008E5080008C50900082D
:1006CC00350C0008350C0008350C0008350C0008FA
:1006DC00350C00089D0A0008170B0008B10B000828
:1006EC00FFF7F6FDFFF708FE744B01221A60744BFE
:1006FC001B68642202FB03F31946002000F09CFDEA
:10070C006421012000F098FD6E4B1B686E4A13604B
:10071C006B4B1B686D4A136095E2FFF7FDFDFFF70D
:10072C0057FE002000F074FD0346012B17D1634BDC
:10073C0002221A60664B1B68642202FB03F3194603
:10074C00002000F079FD6421012000F075FD604B64
:10075C001B685D4A13605E4B1B685C4A136001208A
:10076C0000F056FD0346012B0DD16421012000F051
:10077C0063FD554B1B68013B534A1360534B1B687D
:10078C00013B524A13600120FFF770FD0346002B1A
:10079C0011D04A4B0A221A604A4B1B684A4A136012
:1007AC004A4B02221A60FFF793FDFFF7A5FD1921B2
:1007BC00022000F041FD0020FFF758FD0346002BFE
:1007CC0000F03482434B08221A603E4B1A683C4BB3
:1007DC001B681344642202FB03F31946032000F048
:1007EC002BFD23E2FFF798FDFFF7E2FD002000F060
:1007FC000FFD0346012B1ED1304B03221A60304BE8
:10080C001B68642202FB03F31946002000F014FD60
:10081C006421012000F010FD294B1B682A4A13604B
:10082C00284B1B68294A13602A4B1B68082B02D1E2
:10083C00284B09221A60002000F0EAFC0346012B29
:10084C000DD1214B1B68013B1F4A13601F4B1B68CA
:10085C00013B1E4A13606421012000F0EDFC0120D5
:10086C00FFF704FD0346002B11D0144B0A221A602B
:10087C00144B1B68144A1360144B02221A60FFF7C6
:10088C0027FDFFF739FD1921022000F0D5FC0020CF
:10089C00FFF7ECFC0346002B00F0CA810D4B08223D
:1008AC001A60084B1A68064B1B681344642202FB3F
:1008BC0003F31946032000F0BFFCB9E1EC00002063
:1008CC002C00002024000020F0000020F400002068
:1008DC002800002030000020FFF746FDFFF758FDF0
:1008EC00002000F095FC0346012B17D1A54B0422E8
:1008FC001A60A54B1B68642202FB03F31946002007
:10090C0000F09AFC6421012000F096FC9E4B1B68C1
:10091C009E4A13609C4B1B689D4A1360012000F09B
:10092C0077FC0346012B0DD16421012000F084FCDF
:10093C00964B1B68013B954A1360954B1B68013B1A
:10094C00934A1360914B1B68032B06DC8F4B1B687F
:10095C00C3F104035B028F4A13600120FFF786FC8E
:10096C000346002B11D0874B0A221A608A4B1B6856
:10097C00864A1360864B02221A60FFF7A9FCFFF728
:10098C00BBFC1921022000F057FC0020FFF76EFC85
:10099C000346002B00F04E81804B09221A607E4BDF
:1009AC001A687F4B1B681344642202FB03F319463D
:1009BC00032000F041FC3DE1FFF7C2FCFFF7E8FC2F
:1009CC00002000F025FC0346012B1ED16D4B0122AB
:1009DC001A60734B1B68642202FB03F31946002058
:1009EC0000F02AFC6421012000F026FC6A4B1B68F5
:1009FC00664A13606A4B1B68654A1360674B1B6839
:100A0C00092B02D1654B08221A60012000F000FC72
:100A1C000346012B0DD15D4B1B68013B5B4A1360F8
:100A2C005B4B1B68013B5A4A13606421012000F0A8
:100A3C0003FC0120FFF71AFC0346002B11D0514B8D
:100A4C000A221A60544B1B68504A1360504B022206
:100A5C001A60FFF73DFCFFF74FFC1921022000F054
:100A6C00EBFB0020FFF702FC0346002B00F0E480B8
:100A7C004A4B09221A60484B1A68494B1B681344AD
:100A8C00642202FB03F31946032000F0D5FBD3E0EC
:100A9C00022000F0BDFB0346012B05D119210220D9
:100AAC0000F0CAFBFFF7A4FC0220FFF7DFFB0346B4
:100ABC00002B01D0FFF712FD0320FFF7D7FB0346F5
:100ACC00002B08D0314B1B682F4A1168344A12682E
:100ADC001846FFF717FD0120FFF7C8FB0346002B54
:100AEC0000F0AC80274B0B221A60274B1B68274A5F
:100AFC001360274B03221A60FFF7EAFBFFF7FCFB9E
:100B0C001921022000F098FB98E0022000F080FBF5
:100B1C000346012B05D11921022000F08DFBFFF7B4
:100B2C0079FC0220FFF7A2FB0346002B01D0FFF754
:100B3C00D5FC0320FFF79AFB0346002B08D0164B7D
:100B4C001B68124A1168164A12681846FFF7DAFC3D
:100B5C000120FFF78BFB0346002B71D0094B0C22B5
:100B6C001A600F4B1B68094A1360094B04221A6068
:100B7C00FFF7AEFBFFF7C0FB1921022000F05CFB76
:100B8C005EE000BFEC00002028000020F0000020F8
:100B9C00F4000020F8000020240000203000002089
:100BAC002C000020022000F033FB0346012B05D162
:100BBC001921022000F040FBFFF746FC0220FFF752
:100BCC0055FB0346002B01D0FFF788FC0320FFF7F1
:100BDC004DFB0346002B08D01C4B1B681C4A1168AC
:100BEC001C4A12681846FFF78DFC0120FFF73EFBEC
:100BFC000346002B26D0184B01221A60174B1B689A
:100C0C00642202FB03F31946002000F015FB64215B
:100C1C00012000F011FB0D4B1B680E4A13600F4BAB
:100C2C001B680F4A13600DE000BF0CE000BF0AE028
:100C3C0000BF08E000BF06E000BF04E000BF02E018
:100C4C0000BF00E000BF00BF80BD00BF240000203B
:100C5C0028000020F0000020EC0000202C000020D8
:100C6C00F400002080B500AF194B1B68092B1FD076
:100C7C00092B2BDC072B02D0082B08D026E0154BB8
:100C8C0000221A60FFF7EEFBFFF712FB1EE00320B9
:100C9C0000F0BEFA0346012B02D10D4B07221A605D
:100CAC00FFF7F4FB0B4B00221A60FFF701FB0DE082
:100CBC00032000F0ADFA0346012B02D1044B0722AE
:100CCC001A60FFF7F5FAFFF7F5FB00BF00BF80BD18
:100CDC0030000020F800002080B582B000AF7860B2
:100CEC0000F0C2FA00F050FAFFF72AFA00BF0837FA
:100CFC00BD4680BD80B500AF00F028FC00F022F8A6
:100D0C0000F024F900F0ACF800F05EF8002109487E
:100D1C0001F02EFC084801F081FB0122012107485B
:100D2C0000F014FA01220121054800F00FFA00F03E
:100D3C0047FAFCE70C01002054010020A50600082E
:100D4C00710C000880B590B000AF07F11803282291
:100D5C000021184602F0B2FA3B1D00221A605A60BC
:100D6C009A60DA601A610223BB610123BB62102313
:100D7C00FB6202237B630023BB634FF46013FB63B2
:100D8C0007F11803184600F01DFF0346002B01D095
:100D9C0000F04AF90F237B600223BB600023FB6049
:100DAC004FF480633B6100237B613B1D022118469D
:100DBC0001F088F90346002B01D000F035F900BF93
:100DCC004037BD4680BD000080B586B000AF07F14E
:100DDC00080300221A605A609A60DA603B460022CF
:100DEC001A605A601D4B4FF080421A601B4B41F643
:100DFC00FF025A60194B00229A60184B6322DA608A
:100E0C00164B00221A61154B00229A61134801F00F
:100E1C00B5FA0346002B01D000F006F94FF48053CD
:100E2C00BB6007F1080319460C4801F00DFE0346A0
:100E3C00002B01D000F0F8F800233B6000237B600E
:100E4C003B461946054802F08FF90346002B01D0AA
:100E5C0000F0EAF800BF1837BD4680BD54010020F1
:100E6C0080B58EB000AF07F1280300221A605A60DB
:100E7C009A60DA6007F1200300221A605A603B1D69
:100E8C0000221A605A609A60DA601A615A619A619B
:100E9C002C4B2D4A1A602B4B00225A60294B0022F6
:100EAC009A60284B4FF6FF72DA60264B00221A61CB
:100EBC00244B00229A61234801F060FA0346002B70
:100ECC0001D000F0B1F84FF48053BB6207F1280356
:100EDC0019461C4801F0B8FD0346002B01D000F068
:100EEC00A3F8184801F0ECFA0346002B01D000F0EF
:100EFC009BF800233B6200237B6207F12003194619
:100F0C00104802F031F90346002B01D000F08CF8A8
:100F1C0060237B600023BB600023FB6000237B61AC
:100F2C003B1D00221946074801F0CCFC0346002B60
:100F3C0001D000F079F8034800F038FA00BF3837D8
:100F4C00BD4680BD0C0100200004004080B586B079
:100F5C0000AF07F1080300221A605A609A60DA6049
:100F6C002E4B9B692D4A43F0040393612B4B9B69D9
:100F7C0003F004037B607B68284B9B69274A43F092
:100F8C0008039361254B9B6903F008033B603B68A6
:100F9C0000224FF48661224800F0E3FD00224FF45A
:100FAC00A061204800F0DDFD1323BB600023FB6033
:100FBC0000233B6107F1080319461A4800F036FC80
:100FCC000923BB600023FB6000233B6107F108038E
:100FDC001946134800F02AFC4FF48663BB600123CA
:100FEC00FB6000233B6102237B6107F10803194678
:100FFC000B4800F01BFC4FF4A063BB600123FB60AB
:10100C0000233B6102237B6107F108031946054865
:10101C0000F00CFC00BF1837BD4680BD001002402C
:10102C00000C01400008014080B400AF72B600BF54
:10103C00FEE7000090B587B000AF3C4684E80F0097
:10104C00142002F02BF903463B613A683B691A60A5
:10105C007A683B695A60BA683B699A603A7B3B692B
:10106C001A733B6900221A612B4B1B68002B03D1AE
:10107C00294A3B6913604CE0274B1B687B613B6939
:10108C005A687B695B689A421ED27B695A683B69D5
:10109C005B68D21A7B695A603B697A691A611E4A8D
:1010AC003B69136035E03B695A687B695B68D21A0F
:1010BC003B695A603B695A687B691B695B689A4259
:1010CC0007D97B691B697B617B691B69002BEAD1A2
:1010DC0000E000BF7B691B69002B0AD13B695A6891
:1010EC007B695B68D21A3B695A607B693A691A6101
:1010FC000FE07B691B6959683B695A687B691B69FE
:10110C008A1A5A607B691A693B691A617B693A6968
:10111C001A611C37BD4690BDFC00002080B582B022
:10112C0000AF094B1B687B607B68002B08D0064B1B
:10113C001B681B69044A1360786802F0B7F800E07A
:10114C0000BF0837BD4680BDFC00002080B588B0CC
:10115C0000AFF860B9607A60FB683B61BB687B618B
:10116C007B68BB617B69002B02D101233B7701E0DB
:10117C0000233B7707F110030FCBFFF75BFF00BF9A
:10118C002037BD4680BD000080B400AF0B4B1B6800
:10119C00002B0FD0094B1B685B68002B04D1074B4D
:1011AC001B6801221A7306E0044B1B685A68013A4B
:1011BC005A6000E000BFBD4680BC7047FC000020B8
:1011CC0090B585B000AF114B1B68002B1AD00F4B9C
:1011DC001B681B7B002B16D00C4B1B681B6898479D
:1011EC000A4B1B683C460FCB84E80F00FFF796FFB9
:1011FC00BB68002B07D03B68B968BA681846FFF784
:10120C00A5FF00E000BF1437BD4690BDFC000020D8
:10121C0080B483B000AF7860064A7B6852F8233004
:10122C00012B0CBF01230023DBB218460C37BD4643
:10123C0080BC7047B001002080B483B000AF7860F0
:10124C00396007497B683A6841F82320054A7B6876
:10125C00002142F8231000BF0C37BD4680BC7047FC
:10126C009C010020B001002080B483B000AF0023AB
:10127C007B601CE0124A7B6852F82330002B13DD94
:10128C000F4A7B6852F823305A1E0D497B6841F88F
:10129C0023200B4A7B6852F82330002B04D1094AD7
:1012AC007B68012142F823107B6801337B607B68EB
:1012BC00042BDFDD00BF00BF0C37BD4680BC704780
:1012CC009C010020B001002080B485B000AF154B0C
:1012DC009B69144A43F001039361124B9B6903F021
:1012EC000103BB60BB680F4BDB690E4A43F08053B4
:1012FC00D3610C4BDB6903F080537B607B680A4B3A
:10130C005B68FB60FB6823F0E063FB60FB6843F009
:10131C000073FB60044AFB68536000BF1437BD4682
:10132C0080BC7047001002400000014080B584B0C2
:10133C0000AF78607B681B68B3F1804F14D1194BF8
:10134C00DB69184A43F00103D361164BDB6903F0E8
:10135C000103FB60FB68002200211C2000F02FFA27
:10136C001C2000F048FA18E07B681B680E4A934278
:10137C0013D10C4BDB690B4A43F00203D361094BCD
:10138C00DB6903F00203BB60BB68002200211D2057
:10139C0000F015FA1D2000F02EFA00BF1037BD46E4
:1013AC0080BD00BF001002400004004080B588B032
:1013BC0000AF786007F1100300221A605A609A603F
:1013CC00DA607B681B680F4A934217D10E4B9B69FE
:1013DC000D4A43F0040393610B4B9B6903F0040328
:1013EC00FB60FB6840233B6102237B610223FB61B2
:1013FC0007F110031946054800F018FA00BF203712
:10140C00BD4680BD000400400010024000080140B1
:10141C0080B400AFFEE780B400AFFEE780B400AF4D
:10142C00FEE780B400AFFEE780B400AFFEE780B407
:10143C0000AF00BFBD4680BC704780B400AF00BF9A
:10144C00BD4680BC704780B400AF00BFBD4680BCB9
:10145C00704780B500AF00F0BFF800BF80BD000042
:10146C0080B500AF024801F025F900BF80BD00BF78
:10147C005401002080B500AF024801F01BF900BFF9
:10148C0080BD00BF0C01002080B586B000AF786035
:10149C00144A154BD31A7B617B693B61134B1B6858
:1014AC00002B02D1114B124A1A60104B1A687B6840
:1014BC0013443A699A4207D201F0C6FE03460C2245
:1014CC001A604FF0FF3309E0084B1B68FB60074BB9
:1014DC001A687B681344054A1360FB681846183772
:1014EC00BD4680BD0050002000040000000100201B
:1014FC00D801002080B400AF00BFBD4680BC70474F
:10150C00FFF7F8FF0B480C490C4A002302E0D458B3
:10151C00C4500433C4188C42F9D3094A094C002333
:10152C0001E013600432A242FBD301F093FEFFF7FB
:10153C00E1FB704700000020A4000020A434000848
:10154C00A4000020D8010020FEE7000080B500AF09
:10155C00084B1B68074A43F010031360032000F08C
:10156C0023F90F2000F008F8FFF7AEFE0023184611
:10157C0080BD00BF0020024080B582B000AF786013
:10158C00124B1A68124B1B7819464FF47A73B3FB43
:10159C00F1F3B2FBF3F3184600F03BF90346002BD2
:1015AC0001D001230EE07B680F2B0AD8002279684A
:1015BC004FF0FF3000F003F9064A7B6813600023FC
:1015CC0000E0012318460837BD4680BD34000020DA
:1015DC003C0000203800002080B400AF054B1B7885
:1015EC001A46054B1B681344034A136000BFBD46E3
:1015FC0080BC70473C000020C401002080B400AFC8
:10160C00024B1B681846BD4680BC7047C4010020C5
:10161C0080B485B000AF78607B6803F00703FB6093
:10162C000C4BDB68BB60BA684FF6FF031340BB6022
:10163C00FB681A02BB68134343F0BF6343F40033E7
:10164C00BB60044ABB68D36000BF1437BD4680BC86
:10165C00704700BF00ED00E080B400AF044BDB68C6
:10166C001B0A03F007031846BD4680BC704700BF39
:10167C0000ED00E080B483B000AF0346FB7197F936
:10168C000730002B0BDBFB7903F01F02064997F99F
:10169C0007305B09012000FA02F241F8232000BF59
:1016AC000C37BD4680BC704700E100E080B483B0CD
:1016BC0000AF03463960FB7197F90730002B0ADB4A
:1016CC003B68DAB20C4997F907301201D2B20B44DD
:1016DC0083F800230AE03B68DAB20849FB7903F08F
:1016EC000F03043B1201D2B20B441A7600BF0C3725
:1016FC00BD4680BC704700BF00E100E000ED00E09B
:10170C0080B489B000AFF860B9607A60FB6803F010
:10171C000703FB61FB69C3F10703042B28BF0423F8
:10172C00BB61FB690433062B02D9FB69033B00E068
:10173C0000237B614FF0FF32BB6902FA03F3DA43FB
:10174C00BB681A407B699A404FF0FF317B6901FA04
:10175C0003F3D9437B680B40134318462437BD462B
:10176C0080BC704780B582B000AF78607B68013B6D
:10177C00B3F1807F01D301230FE00A4A7B68013B60
:10178C0053600F214FF0FF30FFF790FF054B002205
:10179C009A60044B07221A60002318460837BD468E
:1017AC0080BD00BF10E000E080B582B000AF786073
:1017BC007868FFF72DFF00BF0837BD4680BD80B5A8
:1017CC0086B000AF0346B9607A60FB7300237B617F
:1017DC00FFF742FF78617A68B9687869FFF790FF84
:1017EC00024697F90F3011461846FFF75FFF00BF0E
:1017FC001837BD4680BD80B582B000AF0346FB7183
:10180C0097F907301846FFF735FF00BF0837BD467C
:10181C0080BD80B582B000AF78607868FFF7A2FF1A
:10182C00034618460837BD4680BD000080B48BB017
:10183C0000AF7860396000237B6200233B6269E172
:10184C0001227B6A02FA03F3FB613B681B68FA69AD
:10185C001340BB61BA69FB699A4240F058813B68FE
:10186C005B689A4A93425ED0984A934275D8984ADC
:10187C00934258D0964A93426FD8964A934252D08C
:10188C00944A934269D8944A93424CD0924A9342D8
:10189C0063D8924A934246D0904A93425DD8122B19
:1018AC002AD8122B59D801A252F823F03319000868
:1018BC000D1900081F1900086119000867190008A4
:1018CC0067190008671900086719000867190008EC
:1018DC0067190008671900086719000867190008DC
:1018EC0067190008671900086719000867190008CC
:1018FC001519000829190008794A934213D02CE0D5
:10190C003B68DB683B6229E03B68DB6804333B6285
:10191C0024E03B68DB6808333B621FE03B68DB6814
:10192C000C333B621AE03B689B68002B02D104230A
:10193C003B6213E03B689B68012B05D108233B629B
:10194C007B68FA691A6109E008233B627B68FA69D3
:10195C005A6103E000233B6200E000BFBB69FF2B30
:10196C0001D87B6801E07B6804337B61BB69FF2B8A
:10197C0002D87B6A9B0002E07B6A083B9B003B61C0
:10198C007B691A680F213B6901FA03F3DB431A40A8
:10199C00396A3B6901FA03F31A437B691A603B68A5
:1019AC005B6803F08053002B00F0B1804D4B9B69BA
:1019BC004C4A43F0010393614A4B9B6903F00103CA
:1019CC00BB60BB68484A7B6A9B08023352F82330E1
:1019DC00FB607B6A03F003039B000F2202FA03F304
:1019EC00DB43FA681340FB607B68404A934213D098
:1019FC007B683F4A93420DD07B683E4A934207D0A6
:101A0C007B683D4A934201D1032306E0042304E0A2
:101A1C00022302E0012300E000237A6A02F00302B1
:101A2C0092009340FA681343FB602F497B6A9B0832
:101A3C000233FA6841F823203B685B6803F4801397
:101A4C00002B06D02D4B9A682C49BB6913438B6035
:101A5C0006E02A4B9A68BB69DB43284913408B602C
:101A6C003B685B6803F40013002B06D0234BDA6849
:101A7C002249BB691343CB6006E0204BDA68BB6993
:101A8C00DB431E491340CB603B685B6803F40033B7
:101A9C00002B06D0194B5A681849BB6913434B608D
:101AAC0006E0164B5A68BB69DB43144913404B6084
:101ABC003B685B6803F48033002B21D00F4B1A6812
:101ACC000E49BB6913430B6021E000BF00003210CC
:101ADC000000311000002210000021100000121034
:101AEC0000001110001002400000014000080140ED
:101AFC00000C0140001001400014014000040140A2
:101B0C000B4B1A68BB69DB43094913400B607B6ABA
:101B1C0001337B623B681A687B6A22FA03F3002B61
:101B2C007FF48EAE00BF00BF2C37BD4680BC704723
:101B3C000004014080B485B000AF78600B467B8018
:101B4C007B689A687B881340002B02D00123FB73BF
:101B5C0001E00023FB73FB7B18461437BD4680BCA9
:101B6C00704780B483B000AF78600B467B8013461F
:101B7C007B707B78002B03D07A887B681A6103E03A
:101B8C007B881A047B681A6100BF0C37BD4680BC89
:101B9C00704780B485B000AF78600B467B807B6863
:101BAC00DB68FB607A88FB6813401A04FB68D94336
:101BBC007B880B401A437B681A6100BF1437BD4603
:101BCC0080BC704780B586B000AF78607B68002B16
:101BDC0001D101236CE27B681B6803F00103002B2D
:101BEC0000F08780924B5B6803F00C03042B0CD045
:101BFC008F4B5B6803F00C03082B12D18C4B5B688A
:101C0C0003F48033B3F5803F0BD1894B1B6803F48D
:101C1C000033002B6CD07B685B68002B68D10123F0
:101C2C0046E27B685B68B3F5803F06D1804B1B684E
:101C3C007F4A43F4803313602EE07B685B68002B93
:101C4C000CD17B4B1B687A4A23F480331360784B9E
:101C5C001B68774A23F4802313601DE07B685B6864
:101C6C00B3F5A02F0CD1724B1B68714A43F480233F
:101C7C0013606F4B1B686E4A43F4803313600BE0A8
:101C8C006B4B1B686A4A23F480331360684B1B68E8
:101C9C00674A23F4802313607B685B68002B13D0A6
:101CAC00FFF7ACFC386108E0FFF7A8FC02463B6983
:101CBC00D31A642B01D90323FAE15D4B1B6803F49F
:101CCC000033002BF0D014E0FFF798FC386108E0EB
:101CDC00FFF794FC02463B69D31A642B01D903230A
:101CEC00E6E1534B1B6803F40033002BF0D100E00A
:101CFC0000BF7B681B6803F00203002B63D04C4BC6
:101D0C005B6803F00C03002B0BD0494B5B6803F0B2
:101D1C000C03082B1CD1464B5B6803F48033002B5F
:101D2C0016D1434B1B6803F00203002B05D07B68D4
:101D3C001B69012B01D00123BAE13D4B1B6823F039
:101D4C00F8027B685B69DB00394913430B603AE0AE
:101D5C007B681B69002B20D0364B01221A60FFF7E1
:101D6C004DFC386108E0FFF749FC02463B69D31A89
:101D7C00022B01D903239BE12D4B1B6803F00203BB
:101D8C00002BF0D02A4B1B6823F0F8027B685B69B0
:101D9C00DB00274913430B6015E0264B00221A6029
:101DAC00FFF72CFC386108E0FFF728FC02463B6982
:101DBC00D31A022B01D903237AE11D4B1B6803F0C4
:101DCC000203002BF0D17B681B6803F00803002B87
:101DDC003AD07B689B69002B19D0174B01221A60F3
:101DEC00FFF70CFC386108E0FFF708FC02463B6982
:101DFC00D31A022B01D903235AE10D4B5B6A03F072
:101E0C000203002BF0D0012000F09AFA1CE00A4BE0
:101E1C0000221A60FFF7F2FB38610FE0FFF7EEFBD0
:101E2C0002463B69D31A022B08D9032340E100BFB9
:101E3C000010024000004242800442429E4B5B6A0A
:101E4C0003F00203002BE9D17B681B6803F0040349
:101E5C00002B00F0A6800023FB75974BDB6903F089
:101E6C008053002B0DD1944BDB69934A43F0805384
:101E7C00D361914BDB6903F08053BB60BB680123DA
:101E8C00FB758E4B1B6803F48073002B18D18B4BA6
:101E9C001B688A4A43F480731360FFF7AFFB386109
:101EAC0008E0FFF7ABFB02463B69D31A642B01D960
:101EBC000323FDE0814B1B6803F48073002BF0D0EF
:101ECC007B68DB68012B06D17B4B1B6A7A4A43F09B
:101EDC00010313622DE07B68DB68002B0CD1764B81
:101EEC001B6A754A23F001031362734B1B6A724A17
:101EFC0023F0040313621CE07B68DB68052B0CD118
:101F0C006D4B1B6A6C4A43F0040313626A4B1B6AE9
:101F1C00694A43F0010313620BE0674B1B6A664A84
:101F2C0023F001031362644B1B6A634A23F004031E
:101F3C0013627B68DB68002B15D0FFF75FFB386101
:101F4C000AE0FFF75BFB02463B69D31A41F2883289
:101F5C00934201D90323ABE0574B1B6A03F00203F6
:101F6C00002BEED014E0FFF749FB38610AE0FFF7D5
:101F7C0045FB02463B69D31A41F28832934201D9A0
:101F8C00032395E04C4B1B6A03F00203002BEED1AC
:101F9C00FB7D012B05D1484BDB69474A23F080536D
:101FAC00D3617B68DB69002B00F08180424B5B685E
:101FBC0003F00C03082B61D07B68DB69022B46D144
:101FCC003F4B00221A60FFF719FB386108E0FFF75E
:101FDC0015FB02463B69D31A022B01D9032367E098
:101FEC00354B1B6803F00073002BF0D17B681B6A28
:101FFC00B3F5803F08D1304B5B6823F400327B682B
:10200C009B682D4913434B602B4B5B6823F4741274
:10201C007B68196A7B685B6A0B43274913434B60E7
:10202C00274B01221A60FFF7E9FA386108E0FFF745
:10203C00E5FA02463B69D31A022B01D9032337E098
:10204C001D4B1B6803F00073002BF0D02FE01C4BD2
:10205C0000221A60FFF7D2FA386108E0FFF7CEFAD7
:10206C0002463B69D31A022B01D9032320E0124B01
:10207C001B6803F00073002BF0D118E07B68DB6960
:10208C00012B01D1012313E00B4B5B68FB60FB6858
:10209C0003F480327B681B6A9A4206D1FB6803F416
:1020AC0070127B685B6A9A4201D0012300E0002326
:1020BC0018461837BD4680BD001002400070004025
:1020CC006000424280B584B000AF786039607B68B4
:1020DC00002B01D10123D0E06A4B1B6803F00703EE
:1020EC003A689A4210D9674B1B6823F0070265497E
:1020FC003B6813430B60634B1B6803F007033A68A0
:10210C009A4201D00123B8E07B681B6803F00203FC
:10211C00002B20D07B681B6803F00403002B05D038
:10212C00594B5B68584A43F4E06353607B681B6807
:10213C0003F00803002B05D0534B5B68524A43F461
:10214C0060535360504B5B6823F0F0027B689B68D4
:10215C004D4913434B607B681B6803F00103002B54
:10216C0040D07B685B68012B07D1474B1B6803F49D
:10217C000033002B15D101237FE07B685B68022BB9
:10218C0007D1414B1B6803F00073002B09D10123CD
:10219C0073E03D4B1B6803F00203002B01D10123BC
:1021AC006BE0394B5B6823F003027B685B68364954
:1021BC0013434B60FFF722FAF8600AE0FFF71EFAB0
:1021CC000246FB68D31A41F28832934201D90323A9
:1021DC0053E02D4B5B6803F00C027B685B689B0043
:1021EC009A42EBD1274B1B6803F007033A689A42DB
:1021FC0010D2244B1B6823F0070222493B6813437F
:10220C000B60204B1B6803F007033A689A4201D01D
:10221C00012332E07B681B6803F00403002B08D019
:10222C00194B5B6823F4E0627B68DB681649134347
:10223C004B607B681B6803F00803002B09D0124B22
:10224C005B6823F460527B681B69DB000E49134307
:10225C004B6000F021F802460B4B5B681B0903F046
:10226C000F030A49CB5C22FA03F3094A1360094BAA
:10227C001B681846FFF780F9002318461037BD4637
:10228C0080BD00BF002002400010024078340008DE
:10229C00340000203800002080B487B000AF002349
:1022AC00FB600023BB6000237B6100237B60002369
:1022BC003B611E4B5B68FB60FB6803F00C03042B5B
:1022CC0002D0082B03D027E0194B3B6127E0FB68B9
:1022DC009B0C03F00F03174AD35C7B60FB6803F481
:1022EC008033002B10D0114B5B685B0C03F00103A7
:1022FC00114AD35CBB607B680D4A02FB03F2BB68DE
:10230C00B2FBF3F37B6104E07B680C4A02FB03F342
:10231C007B617B693B6102E0054B3B6100BF3B6924
:10232C0018461C37BD4680BC704700BF00100240E9
:10233C0000127A00883400089834000800093D0027
:10234C0080B485B000AF78600A4B1B680A4AA2FBC8
:10235C0003235B0A7A6802FB03F3FB6000BFFB6894
:10236C005A1EFA60002BF9D100BF00BF1437BD46CE
:10237C0080BC704734000020D34D621080B582B011
:10238C0000AF78607B68002B01D1012341E07B68B2
:10239C0093F83D30DBB2002B06D17B68002283F82A
:1023AC003C207868FEF7C2FF7B68022283F83D2050
:1023BC007B681A687B6804331946104600F030FCC1
:1023CC007B68012283F846207B68012283F83E203B
:1023DC007B68012283F83F207B68012283F8402030
:1023EC007B68012283F841207B68012283F842201C
:1023FC007B68012283F843207B68012283F8442008
:10240C007B68012283F845207B68012283F83D20FC
:10241C00002318460837BD4680BD000080B485B047
:10242C0000AF78607B6893F83D30DBB2012B01D0B4
:10243C0001233AE07B68022283F83D207B681B680D
:10244C00DA687B681B6842F00102DA607B681B6803
:10245C00184A93420ED07B681B68B3F1804F09D0A9
:10246C007B681B68144A934204D07B681B68134A30
:10247C00934211D17B681B689B6803F00703FB60D8
:10248C00FB68062B10D07B681B681A687B681B687E
:10249C0042F001021A6007E07B681B681A687B68CF
:1024AC001B6842F001021A60002318461437BD461F
:1024BC0080BC7047002C0140000400400008004024
:1024CC0080B582B000AF78607B68002B01D101230E
:1024DC0041E07B6893F83D30DBB2002B06D17B6882
:1024EC00002283F83C20786800F039F87B680222DF
:1024FC0083F83D207B681A687B68043319461046C4
:10250C0000F08EFB7B68012283F846207B68012259
:10251C0083F83E207B68012283F83F207B680122F0
:10252C0083F840207B68012283F841207B680122DC
:10253C0083F842207B68012283F843207B680122C8
:10254C0083F844207B68012283F845207B680122B4
:10255C0083F83D20002318460837BD4680BD80B463
:10256C0083B000AF786000BF0C37BD4680BC7047AD
:10257C0080B584B000AF786039603B68002B09D11E
:10258C007B6893F83E30DBB2012B14BF0123002390
:10259C00DBB222E03B68042B09D17B6893F83F3017
:1025AC00DBB2012B14BF01230023DBB215E03B6827
:1025BC00082B09D17B6893F84030DBB2012B14BF98
:1025CC0001230023DBB208E07B6893F84130DBB2D7
:1025DC00012B14BF01230023DBB2002B01D00123FC
:1025EC005EE03B68002B04D17B68022283F83E201E
:1025FC0013E03B68042B04D17B68022283F83F2054
:10260C000BE03B68082B04D17B68022283F8402046
:10261C0003E07B68022283F841207B681B6801225F
:10262C003968184600F07CFD7B681B681E4A934293
:10263C0007D17B681B685A6C7B681B6842F40042AC
:10264C005A647B681B68184A93420ED07B681B68DF
:10265C00B3F1804F09D07B681B68144A934204D0B5
:10266C007B681B68124A934211D17B681B689B687C
:10267C0003F00703FB60FB68062B10D07B681B681C
:10268C001A687B681B6842F001021A6007E07B68DD
:10269C001B681A687B681B6842F001021A600023F1
:1026AC0018461037BD4680BD002C01400004004088
:1026BC000008004080B582B000AF78607B681B6872
:1026CC001B6903F00203022B22D17B681B68DB68B9
:1026DC0003F00203022B1BD17B681B686FF0020214
:1026EC001A617B6801221A777B681B689B6903F06F
:1026FC000303002B03D0786800F076FA05E07868C5
:10270C0000F069FA786800F078FA7B6800221A7792
:10271C007B681B681B6903F00403042B22D17B68C4
:10272C001B68DB6803F00403042B1BD17B681B685C
:10273C006FF004021A617B6802221A777B681B68AF
:10274C009B6903F44073002B03D0786800F04CFABB
:10275C0005E0786800F03FFA786800F04EFA7B6884
:10276C0000221A777B681B681B6903F00803082B8F
:10277C0022D17B681B68DB6803F00803082B1BD194
:10278C007B681B686FF008021A617B6804221A7759
:10279C007B681B68DB6903F00303002B03D07868AC
:1027AC0000F022FA05E0786800F015FA786800F07D
:1027BC0024FA7B6800221A777B681B681B6903F07C
:1027CC001003102B22D17B681B68DB6803F010030D
:1027DC00102B1BD17B681B686FF010021A617B6891
:1027EC0008221A777B681B68DB6903F44073002BA3
:1027FC0003D0786800F0F8F905E0786800F0EBF9A0
:10280C00786800F0FAF97B6800221A777B681B68FD
:10281C001B6903F00103012B0ED17B681B68DB687D
:10282C0003F00103012B07D17B681B686FF00102D9
:10283C001A617868FEF750FA7B681B681B6903F015
:10284C008003802B0ED17B681B68DB6803F0800350
:10285C00802B07D17B681B686FF080021A61786847
:10286C0000F0E9FC7B681B681B6903F04003402BFC
:10287C000ED17B681B68DB6803F04003402B07D14B
:10288C007B681B686FF040021A61786800F0BEF933
:10289C007B681B681B6903F02003202B0ED17B681F
:1028AC001B68DB6803F02003202B07D17B681B68B7
:1028BC006FF020021A61786800F0B4FC00BF083792
:1028CC00BD4680BD80B586B000AFF860B9607A6057
:1028DC000023FB75FB6893F83C30012B01D10223DC
:1028EC00AEE0FB68012283F83C207B680C2B00F2E5
:1028FC009F8001A252F823F0392900083D2A0008D4
:10290C003D2A00083D2A0008792900083D2A0008C4
:10291C003D2A00083D2A0008BB2900083D2A000872
:10292C003D2A00083D2A0008FB290008FB681B68AB
:10293C00B968184600F0D6F9FB681B689A69FB6801
:10294C001B6842F008029A61FB681B689A69FB6875
:10295C001B6822F004029A61FB681B689969BB68CA
:10296C001A69FB681B680A439A6164E0FB681B6880
:10297C00B968184600F01CFAFB681B689A69FB687A
:10298C001B6842F400629A61FB681B689A69FB68D9
:10299C001B6822F480629A61FB681B689969BB68AA
:1029AC001B691A02FB681B680A439A6143E0FB68C7
:1029BC001B68B968184600F065FAFB681B68DA6991
:1029CC00FB681B6842F00802DA61FB681B68DA6975
:1029DC00FB681B6822F00402DA61FB681B68D9698A
:1029EC00BB681A69FB681B680A43DA6123E0FB6861
:1029FC001B68B968184600F0AFFAFB681B68DA6907
:102A0C00FB681B6842F40062DA61FB681B68DA69D8
:102A1C00FB681B6822F48062DA61FB681B68D96969
:102A2C00BB681B691A02FB681B680A43DA6102E087
:102A3C000123FB7500BFFB68002283F83C20FB7D63
:102A4C0018461837BD4680BD80B584B000AF78609D
:102A5C0039600023FB737B6893F83C30012B01D168
:102A6C000223B4E07B68012283F83C207B680222BD
:102A7C0083F83D207B681B689B68BB60BB6823F0B8
:102A8C007703BB60BB6823F47F43BB607B681B6828
:102A9C00BA689A603B681B68B3F5005F3ED0B3F52B
:102AAC00005F00F28780B3F5805F00F08680B3F59D
:102ABC00805F7FD8702B1AD0702B7BD8602B50D0B6
:102ACC00602B77D8502B3CD0502B73D8402B58D040
:102ADC00402B6FD8302B64D0302B6BD8202B60D090
:102AEC00202B67D8002B5CD0102B5AD062E07B686F
:102AFC0018683B6899683B685A683B68DB6800F06B
:102B0C00F0FA7B681B689B68BB60BB6843F077037B
:102B1C00BB607B681B68BA689A604FE07B6818687A
:102B2C003B6899683B685A683B68DB6800F0D9FAE7
:102B3C007B681B689A687B681B6842F480429A60C9
:102B4C003CE07B6818683B6859683B68DB681A4650
:102B5C0000F050FA7B681B685021184600F0A7FA69
:102B6C002CE07B6818683B6859683B68DB681A4640
:102B7C0000F06EFA7B681B686021184600F097FA2B
:102B8C001CE07B6818683B6859683B68DB681A4630
:102B9C0000F030FA7B681B684021184600F087FA79
:102BAC000CE07B681A683B681B681946104600F0FD
:102BBC007EFA03E00123FB7300E000BF7B68012277
:102BCC0083F83D207B68002283F83C20FB7B184671
:102BDC001037BD4680BD80B483B000AF786000BFB5
:102BEC000C37BD4680BC704780B483B000AF7860B2
:102BFC0000BF0C37BD4680BC704780B483B000AFBB
:102C0C00786000BF0C37BD4680BC704780B483B081
:102C1C0000AF786000BF0C37BD4680BC7047000029
:102C2C0080B485B000AF786039607B681B68FB604E
:102C3C007B68294A93420BD07B68B3F1804F07D055
:102C4C007B68264A934203D07B68254A934208D17D
:102C5C00FB6823F07003FB603B685B68FA68134306
:102C6C00FB607B681C4A93420BD07B68B3F1804FAE
:102C7C0007D07B68194A934203D07B68184A934269
:102C8C0008D1FB6823F44073FB603B68DB68FA688F
:102C9C001343FB60FB6823F080023B685B691343C2
:102CAC00FB607B68FA681A603B689A687B68DA623A
:102CBC003B681A687B689A627B68074A934203D127
:102CCC003B681A697B681A637B6801225A6100BFF2
:102CDC001437BD4680BC7047002C014000040040F6
:102CEC000008004080B487B000AF786039607B6822
:102CFC001B6A7B617B681B6A23F001027B681A628A
:102D0C007B685B683B617B689B69FB60FB6823F0BD
:102D1C007003FB60FB6823F00303FB603B681B68DC
:102D2C00FA681343FB607B6923F002037B613B6809
:102D3C009B687A6913437B617B681C4A93420CD174
:102D4C007B6923F008037B613B68DB687A6913437A
:102D5C007B617B6923F004037B617B68134A93429C
:102D6C0011D13B6923F480733B613B6923F40073FD
:102D7C003B613B685B693A6913433B613B689B6908
:102D8C003A6913433B617B683A695A607B68FA681D
:102D9C009A613B685A687B685A637B687A691A62E5
:102DAC0000BF1C37BD4680BC704700BF002C0140E3
:102DBC0080B487B000AF786039607B681B6A7B6138
:102DCC007B681B6A23F010027B681A627B685B6865
:102DDC003B617B689B69FB60FB6823F4E043FB6011
:102DEC00FB6823F44073FB603B681B681B02FA68AA
:102DFC001343FB607B6923F020037B613B689B687A
:102E0C001B017A6913437B617B681D4A93420DD188
:102E1C007B6923F080037B613B68DB681B017A696B
:102E2C0013437B617B6923F040037B617B68144A0D
:102E3C00934213D13B6923F480633B613B6923F4D8
:102E4C0000633B613B685B699B003A6913433B61E0
:102E5C003B689B699B003A6913433B617B683A6909
:102E6C005A607B68FA689A613B685A687B689A6317
:102E7C007B687A691A6200BF1C37BD4680BC7047FC
:102E8C00002C014080B487B000AF786039607B685B
:102E9C001B6A7B617B681B6A23F480727B681A62F5
:102EAC007B685B683B617B68DB69FB60FB6823F0DC
:102EBC007003FB60FB6823F00303FB603B681B683B
:102ECC00FA681343FB607B6923F400737B613B68F6
:102EDC009B681B027A6913437B617B681D4A934292
:102EEC000DD17B6923F400637B613B68DB681B02BB
:102EFC007A6913437B617B6923F480637B617B6814
:102F0C00144A934213D13B6923F480533B613B69D0
:102F1C0023F400533B613B685B691B013A69134323
:102F2C003B613B689B691B013A6913433B617B68BE
:102F3C003A695A607B68FA68DA613B685A687B6860
:102F4C00DA637B687A691A6200BF1C37BD4680BCA5
:102F5C00704700BF002C014080B487B000AF786090
:102F6C0039607B681B6A3B617B681B6A23F4805267
:102F7C007B681A627B685B687B617B68DB69FB60E2
:102F8C00FB6823F4E043FB60FB6823F44073FB60B5
:102F9C003B681B681B02FA681343FB603B6923F414
:102FAC0000533B613B689B681B033A6913433B61CD
:102FBC007B680F4A934209D17B6923F480437B6180
:102FCC003B685B699B017A6913437B617B687A6917
:102FDC005A607B68FA68DA613B685A687B681A64E5
:102FEC007B683A691A6200BF1C37BD4680BC7047CB
:102FFC00002C014080B487B000AFF860B9607A60F3
:10300C00FB681B6A7B61FB681B6A23F00102FB688F
:10301C001A62FB689B693B613B6923F0F0033B61DF
:10302C007B681B013A6913433B617B6923F00A03FC
:10303C007B617A69BB6813437B61FB683A699A616F
:10304C00FB687A691A6200BF1C37BD4680BC7047AA
:10305C0080B487B000AFF860B9607A60FB681B6A17
:10306C007B61FB681B6A23F01002FB681A62FB6829
:10307C009B693B613B6923F470433B617B681B0399
:10308C003A6913433B617B6923F0A0037B61BB6806
:10309C001B017A6913437B61FB683A699A61FB688F
:1030AC007A691A6200BF1C37BD4680BC704780B479
:1030BC0085B000AF786039607B689B68FB60FB680B
:1030CC0023F07003FB603A68FB68134343F007037B
:1030DC00FB607B68FA689A6000BF1437BD4680BC01
:1030EC00704780B487B000AFF860B9607A603B601D
:1030FC00FB689B687B617B6923F47F437B613B6846
:10310C001A027B681A43BB6813437A6913437B61C9
:10311C00FB687A699A6000BF1C37BD4680BC70475B
:10312C0080B487B000AFF860B9607A60BB6803F018
:10313C001F03012202FA03F37B61FB681A6A7B69A5
:10314C00DB431A40FB681A62FB681A6ABB6803F01F
:10315C001F03796801FA03F31A43FB681A6200BF74
:10316C001C37BD4680BC704780B485B000AF78601A
:10317C0039607B6893F83C30012B01D1022346E087
:10318C007B68012283F83C207B68022283F83D2077
:10319C007B681B685B68FB607B681B689B68BB601B
:1031AC00FB6823F07003FB603B681B68FA681343F1
:1031BC00FB607B681B68FA685A607B681B68164A60
:1031CC0093420ED07B681B68B3F1804F09D07B68AB
:1031DC001B68124A934204D07B681B68104A9342C6
:1031EC000CD1BB6823F08003BB603B685B68BA689A
:1031FC001343BB607B681B68BA689A607B680122CA
:10320C0083F83D207B68002283F83C20002318467D
:10321C001437BD4680BC7047002C014000040040B0
:10322C000008004080B483B000AF786000BF0C375A
:10323C00BD4680BC704780B483B000AF786000BFDF
:10324C000C37BD4680BC7047014B1868704700BFF7
:10325C004000002070B500260C4D0D4C641BA410D2
:10326C00A64209D100F0F6F800260A4D0A4C641B60
:10327C00A410A64205D170BD55F8043B9847013601
:10328C00EEE755F8043B98470136F2E79C3400080A
:10329C009C3400089C340008A0340008024B014602
:1032AC00186800F05FB800BF40000020024B0146D8
:1032BC00186800F00BB800BF400000200346024421
:1032CC00934200D1704703F8011BF9E738B5054666
:1032DC00002943D051F8043C0C1F002BB8BFE41854
:1032EC0000F0AAF81E4A1368104633B963601460E4
:1032FC002846BDE8384000F0A5B8A3420AD9216899
:10330C006218934201BF1A685B68521822606360AE
:10331C000460EDE71A465B680BB1A342FAD9116859
:10332C005018A0420BD12068014450188342116000
:10333C00DED118685B68014411605360D8E702D98C
:10334C000C232B60D4E7206821188B4201BF19682D
:10335C005B680918216063605460C9E738BD00BF21
:10336C0004010020F8B5CD1C25F0030508350C2D03
:10337C0038BF0C25002D064601DBA94203D90C23CE
:10338C0033600020F8BD00F057F821490A68144654
:10339C009CB9204F3B6823B92146304600F03CF8DD
:1033AC0038602946304600F037F8431C23D10C23F3
:1033BC003046336000F046F8E3E723685B1B17D414
:1033CC000B2B03D923601C44256004E06368A242E4
:1033DC000CBF0B605360304600F034F804F10B0066
:1033EC00231D20F00700C21ACCD01B1AA350C9E72A
:1033FC0022466468CCE7C41C24F00304A042E3D04A
:10340C00211A304600F008F80130DDD1CFE700BFBB
:10341C00040100200801002038B50023054D0446A6
:10342C0008462B60FEF730F8431C02D12B6803B121
:10343C00236038BDC8010020014800F009B800BF66
:10344C00D0010020014800F004B800BFD0010020DA
:10345C0070477047F8B500BFF8BC08BC9E46704773
:0C346C00F8B500BFF8BC08BC9E467047D5
:10347800000000000000000001020304060708091C
:1034880002030405060708090A0B0C0D0E0F10109D
:04349800010200002D
:04349C0031010008F2
:0434A0000D01000812
:1034A400010101000008014000080140000801403A
:1034B400000C0140010000000200000010000000A8
:1034C40001000000050000000200000003000000ED
:1034D400070000000024F4001000000001000000B8
:1034E4004400002000000000000000000000000074
:1034F40000000000000000000000000000000000C8
:1035040000000000000000000000000000000000B7
:1035140000000000000000000000000000000000A7
:103524000000000000000000000000000000000097
:103534000000000000000000000000000000000087
:043544000000000083
:040000050800150DCD
:00000001FF
