:020000040800F2
:1000000000500020091A0008051900080B19000803
:1000100011190008171900081D1900080000000038
:10002000000000000000000000000000231900088C
:100030002F190008000000003B19000847190008AC
:10004000511A0008511A0008511A0008511A0008E4
:10005000511A0008511A0008511A0008511A0008D4
:10006000511A0008511A0008511A0008511A0008C4
:10007000511A0008511A0008511A0008511A0008B4
:10008000511A0008511A0008511A0008511A0008A4
:10009000511A0008511A0008511A0008511A000894
:1000A000511A0008511A0008511A0008511A000884
:1000B0005519000869190008511A0008511A00085A
:1000C000511A0008511A0008511A0008511A000864
:1000D000511A0008511A00087D190008511A000829
:1000E000511A0008511A0008511A000800000000B7
:1000F0000000000000000000000000000000000000
:0C01000000000000000000005FF808F1A3
:10010C0010B5054C237833B9044B13B10448AFF345
:10011C0000800123237010BDA80000200000000007
:10012C00904E000808B5034B1BB103490348AFF3CD
:10013C00008008BD00000000AC000020904E0008BC
:10014C0080B582B000AF00237B6076E03F4A7B68CD
:10015C00134419783E4A7B6813440A461A703D4A88
:10016C007B6813441978394A7B6813440A461A7021
:10017C00394A7B6852F8232038497B6851F8233080
:10018C009BB21946104602F005F803461946314A4F
:10019C007B6813440A461A702E4A7B6813441A78FB
:1001AC002A497B680B441B789A422DD1274A7B68DD
:1001BC0013441A7826497B680B441B789A4223D146
:1001CC00244A7B6813441A7825497B680B441B78B6
:1001DC009A422ED01F4A7B6813441978204A7B68B8
:1001EC0013440A461A701E4A7B6813441B78002B72
:1001FC001FD11C4A7B68012142F823101A4A7B68E4
:10020C00642142F8231014E0174A7B6852F823301B
:10021C005A1E15497B6841F82320134A7B6852F813
:10022C002330002B06DC0E4A7B68134401221A7023
:10023C0000E000BF7B6801337B607B68032B85DDAE
:10024C0000BF00BF0837BD4680BD00BFD8000020EE
:10025C00DC000020D400002004000020140000204A
:10026C0000000020E0000020C400002080B483B017
:10027C0000AF78607B68032B02DC7B68002B01DA13
:10028C0000230DE0094A7B6852F82330012B06D17C
:10029C00064A7B68002142F82310012300E000236A
:1002AC0018460C37BD4680BC704700BFE0000020EC
:1002BC0080B483B000AF7860044B1B687A685A63D3
:1002CC0000BF0C37BD4680BC704700BF100100203A
:1002DC0080B500AF00224FF48061054801F071FF3A
:1002EC0000220821034801F06CFF00BF80BD00BF55
:1002FC0000080140000C014080B500AF0022202115
:10030C00044801F05EFF00221021024801F059FF61
:10031C0000BF80BD000C014080B500AF01224FF43E
:10032C008061054801F04DFF00220821034801F0CF
:10033C0048FF00BF80BD00BF00080140000C014019
:10034C0080B500AF01224FF48061054801F039FF00
:10035C0001220821034801F034FF00BF80BD00BF1B
:10036C0000080140000C014080B500AF00224FF4A2
:10037C008061054801F025FF01220821034801F0A6
:10038C0020FF00BF80BD00BF00080140000C0140F1
:10039C0080B500AF01222021044801F012FF002299
:1003AC001021024801F00DFF00BF80BD000C014080
:1003BC0080B500AF01222021044801F002FF012288
:1003CC001021024801F0FDFE00BF80BD000C014071
:1003DC0080B500AF00222021044801F0F2FE01227A
:1003EC001021024801F0EDFE00BF80BD000C014061
:1003FC0080B500AF4FF48061044801F0FAFE202173
:10040C00034801F0F6FE00BF80BD00BF00080140AC
:10041C00000C014080B500AF4FF48061084801F03A
:10042C00E8FE0821074801F0E4FE2021054801F010
:10043C00E0FE1021034801F0DCFE00BF80BD00BFD0
:10044C0000080140000C014080B500AF08210448B1
:10045C0001F0CFFE1021024801F0CBFE00BF80BDA1
:10046C00000C014080B500AF00224FF480610548BC
:10047C0001F0A7FE00224FF48071034801F0A1FEA9
:10048C0000BF80BD000C01400008014080B500AFEA
:10049C0001224FF48061054801F093FE00224FF4D5
:1004AC008071034801F08DFE00BF80BD000C01403F
:1004BC000008014080B500AF00224FF48061054870
:1004CC0001F07FFE01224FF48071034801F079FEA8
:1004DC0000BF80BD000C01400008014080B400AF9B
:1004EC00074B1B680133064A1360054B1B68632BD3
:1004FC0002DD034B01221A6000BFBD4680BC704771
:10050C000C01002080B485B000AFF860B9607A604F
:10051C005C4B1B68FA689A4219DD5A4B1B68FA68E7
:10052C0092FBF3F3584A126802FB03F3564A13602A
:10053C00544B1B68FA6892FBF3F3544A126802FBA3
:10054C0003F3524A13604F4AFB68136094E04E4B1E
:10055C001B68BA689A4219DD4B4B1B68BA6892FB50
:10056C00F3F3484A126802FB03F3464A1360464B06
:10057C001B68BA6892FBF3F3444A126802FB03F35C
:10058C00424A1360404ABB68136075E03F4B1B68DE
:10059C007A689A4218DD3D4B1B687A6892FBF3F33C
:1005AC00384A126802FB03F3364A1360374B1B6858
:1005BC007A6892FBF3F3BA6802FB03F3324A1360D6
:1005CC00324A7B68136057E02E4B1B68FA689A42DC
:1005DC0019DAFB682E4A82FB03125210DB17D31A6E
:1005EC005B00294A1360FB68294A82FB03125210F4
:1005FC00DB17D21A13465B001344244A1360214ABA
:10060C00FB68136038E0204B1B68BA689A4217DA13
:10061C00BB68DA0F13445B101A4613469B00134455
:10062C00184A1360BB68DA0F13445B101A46134662
:10063C005B001344154A1360134ABB6813601BE03C
:10064C00124B1B687A689A4216DA7B68114A82FB55
:10065C000312DB17D21A13469B001344094A13608A
:10066C007B680C4A82FB0312DB17D31A5B00064A29
:10067C001360064A7B68136000BF1437BD4680BC0C
:10068C00704700BF24000020280000202C00002010
:10069C00676666665655555580B58EB000AFAA4B49
:1006AC001B680C2B00F2888401A252F823F000BFC7
:1006BC00F106000825070008350800087D09000828
:1006CC00D90A0008C50F0008C50F0008C50F00089F
:1006DC00C50F0008C50F0008750C0008830D000835
:1006EC00B50E0008984B01221A60984B1B686422C7
:1006FC0002FB03F31946002000F0C0FF012101208A
:10070C0000F0BCFF924B1B68924A13608F4B1B6826
:10071C00914A136000F059BCFFF7FEFDFFF758FE3D
:10072C00012000F097FF0346012B2BD1894B1A684F
:10073C003B1D8A49184604F021F803469AB2391D2C
:10074C004FF4FA73864803F04DF9834B1A683B1D3E
:10075C008449184604F012F803469AB2391D4FF436
:10076C00FA737F4803F03EF96421012000F086FF04
:10077C00784B1B68013B774A1360774B1B68013B36
:10078C00754A1360002000F065FF0346012B17D15A
:10079C006D4B02221A60744B1B68642202FB03F33C
:1007AC001946002000F06AFF0121012000F066FFCD
:1007BC006D4B1B68674A13606B4B1B68664A136072
:1007CC000120FFF753FD0346002B16D05E4B0A2287
:1007DC001A605F4B1B685F4A13605F4B02221A6002
:1007EC00FFF776FDFFF788FD1921022000F046FF88
:1007FC004FF4FA71062000F041FF0020FFF736FDA0
:10080C000346002B00F0DA83584B08221A60504B39
:10081C001A684E4B1B681344642202FB03F31946FF
:10082C00032000F02BFFC9E3FFF776FDFFF7C0FDB7
:10083C00012000F00FFF0346012B2BD1454B1A680A
:10084C003B1D4649184603F099FF03469AB2391DE1
:10085C004FF4FA73424803F0C5F83F4B1A683B1D3E
:10086C004049184603F08AFF03469AB2391D4FF4EB
:10087C00FA733B4803F0B6F8364B1B68013B354A1C
:10088C001360354B1B68013B334A13606421012014
:10089C0000F0F4FE002000F0DDFE0346012B1ED11B
:1008AC00294B03221A60294B1B68642202FB03F3B9
:1008BC001946002000F0E2FE0121012000F0DEFECE
:1008CC00224B1B68234A1360214B1B68224A13607E
:1008DC00264B1B68082B02D1244B09221A600120DD
:1008EC00FFF7C4FC0346002B16D0174B0A221A60E4
:1008FC00174B1B68174A1360174B02221A60FFF73D
:10090C00E7FCFFF7F9FC1921022000F0B7FE4FF4C9
:10091C00FA71062000F0B2FE0020FFF7A7FC034698
:10092C00002B00F04D83114B08221A60084B1A68FB
:10093C00064B1B681344642202FB03F31946032085
:10094C0000F09CFE3CE300BFF00000202C000020D7
:10095C00240000200C010020F4000020A84E000808
:10096C00A0010020B84E0008280000203000002014
:10097C00FFF7FAFCFFF70CFD012000F06BFE0346BD
:10098C00012B2BD1AD4B1A683B1DAD49184603F01A
:10099C00F5FE03469AB2391D4FF4FA73A94803F0D9
:1009AC0021F8A94B1A683B1DA849184603F0E6FE2E
:1009BC0003469AB2391D4FF4FA73A24803F012F8A9
:1009CC006421012000F05AFE9C4B1B68013B9B4AA2
:1009DC0013609D4B1B68013B9B4A1360002000F089
:1009EC0039FE0346012B17D1994B04221A60994BFF
:1009FC001B68642202FB03F31946002000F03EFE44
:100A0C000121012000F03AFE924B1B688B4A1360C7
:100A1C00904B1B688C4A13608E4B1B68042B0BDCB1
:100A2C008C4B1B68C3F10502844B1B689A4203D1A3
:100A3C000021042000F022FE864B1B68042B11DCE5
:100A4C00844B1B68C3F105027C4B1B689A4209DB83
:100A5C00804B1B68C3F10502784B1B68D31A5B02F1
:100A6C007D4A13600120FFF701FC0346002B16D0D2
:100A7C00774B0A221A60794B1B68704A1360724BD1
:100A8C0002221A60FFF724FCFFF736FC1921022022
:100A9C0000F0F4FD4FF4FA71062000F0EFFD002099
:100AAC00FFF7E4FB0346002B00F08C826C4B092211
:100ABC001A606A4B1A686B4B1B681344642202FB66
:100ACC0003F31946032000F0D9FD7BE2FFF738FC55
:100ADC00FFF75EFC012000F0BDFD0346012B2BD17E
:100AEC00564B1A683B1D5649184603F047FE034601
:100AFC009AB2391D4FF4FA73524802F073FF524BFD
:100B0C001A683B1D5149184603F038FE03469AB249
:100B1C00391D4FF4FA734B4802F064FF474B1B68C6
:100B2C00013B464A1360484B1B68013B464A136025
:100B3C006421012000F0A2FD002000F08BFD034693
:100B4C00012B1ED1424B01221A60464B1B686422BA
:100B5C0002FB03F31946002000F090FD0121012057
:100B6C0000F08CFD3D4B1B68344A13603D4B1B68F9
:100B7C00354A13603A4B1B68092B02D1384B0822BB
:100B8C001A60344B1B68042B07DD2C4B1B68052BA0
:100B9C0003D10021042000F071FD2E4B1B68042BA7
:100BAC000ADD264B1B68052B06DC244B1B68C3F1A6
:100BBC0005035B02284A1360264B1B68042B09DCD7
:100BCC001E4B1B68C3F105031A02234B1B6813440D
:100BDC00214A13600120FFF749FB0346002B16D076
:100BEC001B4B0A221A601D4B1B68144A1360164BD0
:100BFC0002221A60FFF76CFBFFF77EFB1921022023
:100C0C0000F03CFD4FF4FA71062000F037FD002097
:100C1C00FFF72CFB0346002B00F0D681104B09226A
:100C2C001A600E4B1A680F4B1B681344642202FBAC
:100C3C0003F31946032000F021FDC5E10C0100204F
:100C4C00A84E0008A0010020F4000020B84E0008B7
:100C5C00F000002028000020F800002024000020D4
:100C6C00300000202C000020062000F0F3FC03468E
:100C7C00012B17D1834B01221A60834B1B68642212
:100C8C0002FB03F31946002000F0F8FC01210120BF
:100C9C0000F0F4FC7D4B1B687D4A13607A4B1B689B
:100CAC007C4A1360022000F0D5FC0346012B05D1D1
:100CBC001921022000F0E2FCFFF79AFB0220FFF75B
:100CCC00D5FA0346002B06D0FFF708FC4FF4FA7157
:100CDC00062000F0D3FC0320FFF7C8FA0346002BD4
:100CEC000DD06B4B1B686C4A1168674A126818462A
:100CFC00FFF708FC4FF4FA71062000F0BFFC01204E
:100D0C00FFF7B4FA0346002B16D05E4B0B221A6089
:100D1C00614B1B685E4A13605E4B03221A60FFF73F
:100D2C00D7FAFFF7E9FA1921022000F0A7FC4FF4DB
:100D3C00FA71062000F0A2FC554B1A683B1D57496E
:100D4C00184603F01BFD03469AB2391D4FF4FA7393
:100D5C00534802F047FE4F4B1A683B1D5149184649
:100D6C0003F00CFD03469AB2391D4FF4FA734C484C
:100D7C0002F038FE29E1062000F06CFC0346012B42
:100D8C0017D1404B01221A603F4B1B68642202FBB7
:100D9C0003F31946002000F071FC0121012000F042
:100DAC006DFC3A4B1B683A4A1360374B1B68394A47
:100DBC001360022000F04EFC0346012B05D11921D3
:100DCC00022000F05BFCFFF725FB0220FFF74EFA38
:100DDC000346002B06D0FFF781FB4FF4FA71062077
:100DEC0000F04CFC0320FFF741FA0346002B0DD01A
:100DFC00264B1B68264A1168234A12681846FFF7CF
:100E0C0081FB4FF4FA71062000F038FC0120FFF74B
:100E1C002DFA0346002B16D01A4B0C221A601A4BD3
:100E2C001B681B4A13601B4B04221A60FFF750FA15
:100E3C00FFF762FA1921022000F020FC4FF4FA713E
:100E4C00062000F01BFC124B1A683B1D1349184678
:100E5C0003F094FC03469AB2391D4FF4FA73104810
:100E6C0002F0C0FD0B4B1A683B1D0E49184603F0EF
:100E7C0085FC03469AB2391D4FF4FA73084802F008
:100E8C00B1FDA2E0F00000202C0000202400002086
:100E9C000C010020F400002028000020A84E0008BF
:100EAC00A0010020B84E0008062000F0D3FB03463A
:100EBC00012B17D1474B01221A60474B1B68642248
:100ECC0002FB03F31946002000F0D8FB012101209E
:100EDC0000F0D4FB414B1B68414A13603E4B1B682E
:100EEC00404A1360022000F0B5FB0346012B05D1EC
:100EFC001921022000F0C2FBFFF7A6FA0220FFF72F
:100F0C00B5F90346002B06D0FFF7E8FA4FF4FA7157
:100F1C00062000F0B3FB0320FFF7A8F90346002BD3
:100F2C000DD02E4B1B68304A11682D4A126818469A
:100F3C00FFF7E8FA4FF4FA71062000F09FFB01204E
:100F4C00FFF794F90346002B17D0224B01221A60AD
:100F5C00214B1B68642202FB03F31946002000F0AE
:100F6C008DFB0121012000F089FB1C4B1B681C4AE6
:100F7C001360194B1B681B4A1360194B1A683B1DF5
:100F8C001A49184603F0FAFB03469AB2391D4FF47E
:100F9C00FA73174802F026FD124B1A683B1D1549CF
:100FAC00184603F0EBFB03469AB2391D4FF4FA7363
:100FBC000F4802F017FD08E000BF06E000BF04E098
:100FCC0000BF02E000BF00E000BF00BF3837BD46E5
:100FDC0080BD00BFF00000202C0000202400002069
:100FEC000C010020F400002028000020A84E00086E
:100FFC00A0010020B84E000880B500AF2C4B1B6838
:10100C00092B1ED0092B51DC072B02D0082B06D044
:10101C004CE0FFF727FA0020FFF74AF946E0254B92
:10102C001E221A60032000F015FB0346012B02D18F
:10103C001F4B07221A60FFF729FA0020FFF738F937
:10104C0034E0032000F006FB0346012B02D1184BC1
:10105C0007221A60FFF72EFA042000F0FBFA034671
:10106C00012B0ED1134B1B681946052000F006FB13
:10107C006421042000F002FB0E4B1B680A330D4A5E
:10108C001360052000F0E6FA0346002B04D10A4B4E
:10109C001B681846FFF70CF9052000F0DBFA034635
:1010AC00012B02D10020FFF703F900BF00BF80BD68
:1010BC003000002034000020F800002080B582B001
:1010CC0000AF786000F0F2FA00F07CFAFFF738F825
:1010DC0000BF0837BD4680BD80B500AF00F0B4FC42
:1010EC0000F024F800F050F900F0AEF800F060F8D1
:1010FC0000F020F90021094801F0B8FD084801F082
:10110C000BFD01220121074800F03EFA01220121CA
:10111C00054800F039FA00F071FAFCE710010020E4
:10112C0058010020A50600080510000880B590B0F5
:10113C0000AF07F1180328220021184603F060FACB
:10114C003B1D00221A605A609A60DA601A61022311
:10115C00BB610123BB621023FB6202237B63002370
:10116C00BB634FF46013FB6307F11803184601F0DF
:10117C0075F80346002B01D000F074F90F237B6047
:10118C000223BB600023FB604FF480633B610023B0
:10119C007B613B1D0221184601F0E0FA0346002B4F
:1011AC0001D000F05FF900BF4037BD4680BD0000A4
:1011BC0080B586B000AF07F1080300221A605A60B0
:1011CC009A60DA603B4600221A605A601D4B4FF061
:1011DC0080421A601B4B41F6FF025A60194B0022E9
:1011EC009A60184B6322DA60164B00221A61154B79
:1011FC0000229A61134801F03FFC0346002B01D0FA
:10120C0000F030F94FF48053BB6007F10803194626
:10121C000C4801F097FF0346002B01D000F022F997
:10122C0000233B6000237B603B461946054802F0D7
:10123C0019FB0346002B01D000F014F900BF18373E
:10124C00BD4680BD5801002080B58EB000AF07F1BF
:10125C00280300221A605A609A60DA6007F12003B2
:10126C0000221A605A603B1D00221A605A609A6074
:10127C00DA601A615A619A612C4B2D4A1A602B4B19
:10128C003F225A60294B00229A60284B40F2E732E9
:10129C00DA60264B00221A61244B00229A61234803
:1012AC0001F0EAFB0346002B01D000F0DBF84FF411
:1012BC008053BB6207F1280319461C4801F042FF1A
:1012CC000346002B01D000F0CDF8184801F076FC55
:1012DC000346002B01D000F0C5F800233B6200232D
:1012EC007B6207F120031946104802F0BBFA034653
:1012FC00002B01D000F0B6F860237B600023BB60AC
:10130C000023FB6000237B613B1D0022194607482C
:10131C0001F056FE0346002B01D000F0A3F8034861
:10132C0000F066FA00BF3837BD4680BD10010020C2
:10133C000004004080B500AF114B124A1A60104BEC
:10134C004FF416525A600E4B00229A600C4B00223E
:10135C00DA600B4B00221A61094B0C225A61084BC4
:10136C0000229A61064B0022DA61054802F0EAFA83
:10137C000346002B01D000F075F800BF80BD00BF04
:10138C00A00100200044004080B586B000AF07F1FA
:10139C00080300221A605A609A60DA602E4B9B692F
:1013AC002D4A43F0040393612B4B9B6903F0040318
:1013BC007B607B68284B9B69274A43F00803936149
:1013CC00254B9B6903F008033B603B6800224FF4FC
:1013DC008761224800F0F5FE00224FF4A0612048FE
:1013EC0000F0EFFE1323BB600023FB6000233B6186
:1013FC0007F1080319461A4800F048FD0123BB60A9
:10140C000023FB6000233B6107F1080319461348D6
:10141C0000F03CFD4FF48763BB600123FB600023AD
:10142C003B6102237B6107F1080319460B4800F06E
:10143C002DFD4FF4A063BB600123FB6000233B61D7
:10144C0002237B6107F108031946054800F01EFDD5
:10145C0000BF1837BD4680BD00100240000C014093
:10146C000008014080B400AF72B600BFFEE7000078
:10147C0090B587B000AF3C4684E80F00142003F011
:10148C00AFF803463B613A683B691A607A683B697E
:10149C005A60BA683B699A603A7B3B691A733B693C
:1014AC0000221A612B4B1B68002B03D1294A3B6984
:1014BC0013604CE0274B1B687B613B695A687B6966
:1014CC005B689A421ED27B695A683B695B68D21A88
:1014DC007B695A603B697A691A611E4A3B691360E1
:1014EC0035E03B695A687B695B68D21A3B695A6084
:1014FC003B695A687B691B695B689A4207D97B69AF
:10150C001B697B617B691B69002BEAD100E000BF82
:10151C007B691B69002B0AD13B695A687B695B6844
:10152C00D21A3B695A607B693A691A610FE07B6990
:10153C001B6959683B695A687B691B698A1A5A602E
:10154C007B691A693B691A617B693A691A611C37B4
:10155C00BD4690BDFC00002080B582B000AF094BA9
:10156C001B687B607B68002B08D0064B1B681B69D3
:10157C00044A1360786803F03BF800E000BF0837BA
:10158C00BD4680BDFC00002080B588B000AFF8607F
:10159C00B9607A60FB683B61BB687B617B68BB614F
:1015AC007B69002B02D101233B7701E000233B77C1
:1015BC0007F110030FCBFFF75BFF00BF2037BD46D1
:1015CC0080BD000080B400AF0B4B1B68002B0FD00C
:1015DC00094B1B685B68002B04D1074B1B6801226D
:1015EC001A7306E0044B1B685A68013A5A6000E013
:1015FC0000BFBD4680BC7047FC00002090B585B094
:10160C0000AF134B1B68002B1ED0114B1B681B7BB0
:10161C00002B14D00E4B1B681B6898470C4B1B6897
:10162C003C460FCB84E80F00FFF796FFBB68002BFE
:10163C0005D03B68B968BA681846FFF7A5FF0121C9
:10164C00002000F0EFFD00E000BF1437BD4690BD58
:10165C00FC00002080B483B000AF7860064A7B6841
:10166C0052F82330012B0CBF01230023DBB21846A8
:10167C000C37BD4680BC70470402002080B483B098
:10168C0000AF7860396007497B683A6841F82320DD
:10169C00054A7B68002142F8231000BF0C37BD4679
:1016AC0080BC7047E80100200402002080B483B0A5
:1016BC0000AF00237B601CE0124A7B6852F8233099
:1016CC00002B13DD0F4A7B6852F823305A1E0D494C
:1016DC007B6841F823200B4A7B6852F82330002B9F
:1016EC0004D1094A7B68012142F823107B6801333D
:1016FC007B607B68062BDFDD00BF00BF0C37BD466F
:10170C0080BC7047E80100200402002080B485B042
:10171C0000AF154B9B69144A43F001039361124BC4
:10172C009B6903F00103BB60BB680F4BDB690E4A7E
:10173C0043F08053D3610C4BDB6903F080537B6027
:10174C007B680A4B5B68FB60FB6823F0E063FB6023
:10175C00FB6843F00073FB60044AFB68536000BFF6
:10176C001437BD4680BC7047001002400000014099
:10177C0080B584B000AF78607B681B68B3F1804F94
:10178C0014D1194BDB69184A43F00103D361164B92
:10179C00DB6903F00103FB60FB68002200211C20C5
:1017AC0000F08BFA1C2000F0A4FA18E07B681B6890
:1017BC000E4A934213D10C4BDB690B4A43F00203E4
:1017CC00D361094BDB6903F00203BB60BB680022E9
:1017DC0000211D2000F071FA1D2000F08AFA00BFD4
:1017EC001037BD4680BD00BF001002400004004011
:1017FC0080B588B000AF786007F1100300221A6042
:10180C005A609A60DA607B681B680F4A934217D162
:10181C000E4B9B690D4A43F0040393610B4B9B6980
:10182C0003F00403FB60FB6840233B6102237B61F4
:10183C000223FB6107F110031946054800F026FB53
:10184C0000BF2037BD4680BD0004004000100240A0
:10185C000008014080B588B000AF786007F1100334
:10186C0000221A605A609A60DA607B681B681F4A13
:10187C00934237D11E4BDB691D4A43F40033D361CD
:10188C001B4BDB6903F40033FB60FB68184B9B6953
:10189C00174A43F004039361154B9B6903F004034F
:1018AC00BB60BB6804233B6102237B610323FB61A8
:1018BC0007F1100319460F4800F0E8FA08233B61C2
:1018CC0000237B610023BB6107F110031946094813
:1018DC0000F0DCFA00220021262000F0EEF9262090
:1018EC0000F007FA00BF2037BD4680BD0044004021
:1018FC00001002400008014080B400AFFEE780B445
:10190C0000AFFEE780B400AFFEE780B400AFFEE7A7
:10191C0080B400AFFEE780B400AF00BFBD4680BC12
:10192C00704780B400AF00BFBD4680BC704780B428
:10193C0000AF00BFBD4680BC704780B500AF00F063
:10194C00C9F800BF80BD000080B500AF024801F0AF
:10195C002FFA00BF80BD00BF5801002080B500AF3A
:10196C00024801F025FA00BF80BD00BF1001002025
:10197C0080B500AF024802F0B9F800BF80BD00BFCF
:10198C00A001002080B586B000AF7860144A154BDA
:10199C00D31A7B617B693B61134B1B68002B02D113
:1019AC00114B124A1A60104B1A687B6813443A693F
:1019BC009A4207D202F0EAFD03460C221A604FF05D
:1019CC00FF3309E0084B1B68FB60074B1A687B6808
:1019DC001344054A1360FB6818461837BD4680BD92
:1019EC0000500020000400000001002038020020FC
:1019FC0080B400AF00BFBD4680BC7047FFF7F8FF56
:101A0C000B480C490C4A002302E0D458C450043350
:101A1C00C4188C42F9D3094A094C002301E0136025
:101A2C000432A242FBD302F0B7FDFFF755FB70471F
:101A3C0000000020A8000020344F0008A80000205F
:101A4C0034020020FEE7000080B500AF084B1B6895
:101A5C00074A43F010031360032000F023F90F2012
:101A6C0000F008F8FFF752FE0023184680BD00BFB7
:101A7C000020024080B582B000AF7860124B1A682B
:101A8C00124B1B7819464FF47A73B3FBF1F3B2FB8C
:101A9C00F3F3184600F03BF90346002B01D0012369
:101AAC000EE07B680F2B0AD8002279684FF0FF30CC
:101ABC0000F003F9064A7B681360002300E0012361
:101ACC0018460837BD4680BD380000204000002075
:101ADC003C00002080B400AF054B1B781A46054B28
:101AEC001B681344034A136000BFBD4680BC70479B
:101AFC00400000202002002080B400AF024B1B6885
:101B0C001846BD4680BC70472002002080B485B0CA
:101B1C0000AF78607B6803F00703FB600C4BDB685D
:101B2C00BB60BA684FF6FF031340BB60FB681A0238
:101B3C00BB68134343F0BF6343F40033BB60044AF8
:101B4C00BB68D36000BF1437BD4680BC704700BF74
:101B5C0000ED00E080B400AF044BDB681B0A03F01F
:101B6C0007031846BD4680BC704700BF00ED00E07F
:101B7C0080B483B000AF0346FB7197F90730002B9C
:101B8C000BDBFB7903F01F02064997F907305B0961
:101B9C00012000FA02F241F8232000BF0C37BD46A9
:101BAC0080BC704700E100E080B483B000AF034616
:101BBC003960FB7197F90730002B0ADB3B68DAB20E
:101BCC000C4997F907301201D2B20B4483F8002369
:101BDC000AE03B68DAB20849FB7903F00F03043BD7
:101BEC001201D2B20B441A7600BF0C37BD4680BC32
:101BFC00704700BF00E100E000ED00E080B489B068
:101C0C0000AFF860B9607A60FB6803F00703FB6112
:101C1C00FB69C3F10703042B28BF0423BB61FB69D9
:101C2C000433062B02D9FB69033B00E000237B61E4
:101C3C004FF0FF32BB6902FA03F3DA43BB681A4078
:101C4C007B699A404FF0FF317B6901FA03F3D9436A
:101C5C007B680B40134318462437BD4680BC704745
:101C6C0080B582B000AF78607B68013BB3F1807FB8
:101C7C0001D301230FE00A4A7B68013B53600F211B
:101C8C004FF0FF30FFF790FF054B00229A60044B9A
:101C9C0007221A60002318460837BD4680BD00BFD6
:101CAC0010E000E080B582B000AF78607868FFF794
:101CBC002DFF00BF0837BD4680BD80B586B000AF94
:101CCC000346B9607A60FB7300237B61FFF742FF28
:101CDC0078617A68B9687869FFF790FF024697F9DE
:101CEC000F3011461846FFF75FFF00BF1837BD468F
:101CFC0080BD80B582B000AF0346FB7197F9073009
:101D0C001846FFF735FF00BF0837BD4680BD80B5CC
:101D1C0082B000AF78607868FFF7A2FF03461846E0
:101D2C000837BD4680BD80B485B000AF7860002315
:101D3C00FB737B6893F82130DBB2022B08D07B68F5
:101D4C0004229A637B68002283F82020012320E080
:101D5C007B681B681A687B681B6822F00E021A608D
:101D6C007B681B681A687B681B6822F001021A608A
:101D7C007B681A6C7B68DB6B012101FA02F25A60FA
:101D8C007B68012283F821207B68002283F82020C5
:101D9C00FB7B18461437BD4680BC704780B584B0B9
:101DAC0000AF78600023FB737B6893F82130DBB2C3
:101DBC00022B05D07B6804229A630123FB7351E04C
:101DCC007B681B681A687B681B6822F00E021A601D
:101DDC007B681B681A687B681B6822F001021A601A
:101DEC007B681B68224A934229D07B681B68214A76
:101DFC00934222D07B681B681F4A93421AD07B689F
:101E0C001B681E4A934212D07B681B681C4A934283
:101E1C000AD07B681B681B4A934202D14FF4801393
:101E2C000EE04FF080730BE04FF4803308E04FF47A
:101E3C00805305E04FF4807302E0102300E001238F
:101E4C00114A53607B68012283F821207B680022B1
:101E5C0083F820207B685B6B002B03D07B685B6B6B
:101E6C0078689847FB7B18461037BD4680BD00BF8D
:101E7C00080002401C0002403000024044000240B6
:101E8C00580002406C0002400000024080B48BB04D
:101E9C0000AF7860396000237B6200233B6269E10C
:101EAC0001227B6A02FA03F3FB613B681B68FA6947
:101EBC001340BB61BA69FB699A4240F058813B6898
:101ECC005B689A4A93425ED0984A934275D8984A76
:101EDC00934258D0964A93426FD8964A934252D026
:101EEC00944A934269D8944A93424CD0924A934272
:101EFC0063D8924A934246D0904A93425DD8122BB3
:101F0C002AD8122B59D801A252F823F0931F00089B
:101F1C006D1F00087F1F0008C11F0008C71F0008A5
:101F2C00C71F0008C71F0008C71F0008C71F0008ED
:101F3C00C71F0008C71F0008C71F0008C71F0008DD
:101F4C00C71F0008C71F0008C71F0008C71F0008CD
:101F5C00751F0008891F0008794A934213D02CE0A2
:101F6C003B68DB683B6229E03B68DB6804333B621F
:101F7C0024E03B68DB6808333B621FE03B68DB68AE
:101F8C000C333B621AE03B689B68002B02D10423A4
:101F9C003B6213E03B689B68012B05D108233B6235
:101FAC007B68FA691A6109E008233B627B68FA696D
:101FBC005A6103E000233B6200E000BFBB69FF2BCA
:101FCC0001D87B6801E07B6804337B61BB69FF2B24
:101FDC0002D87B6A9B0002E07B6A083B9B003B615A
:101FEC007B691A680F213B6901FA03F3DB431A4042
:101FFC00396A3B6901FA03F31A437B691A603B683F
:10200C005B6803F08053002B00F0B1804D4B9B6953
:10201C004C4A43F0010393614A4B9B6903F0010363
:10202C00BB60BB68484A7B6A9B08023352F823307A
:10203C00FB607B6A03F003039B000F2202FA03F39D
:10204C00DB43FA681340FB607B68404A934213D031
:10205C007B683F4A93420DD07B683E4A934207D03F
:10206C007B683D4A934201D1032306E0042304E03C
:10207C00022302E0012300E000237A6A02F003024B
:10208C0092009340FA681343FB602F497B6A9B08CC
:10209C000233FA6841F823203B685B6803F4801331
:1020AC00002B06D02D4B9A682C49BB6913438B60CF
:1020BC0006E02A4B9A68BB69DB43284913408B60C6
:1020CC003B685B6803F40013002B06D0234BDA68E3
:1020DC002249BB691343CB6006E0204BDA68BB692D
:1020EC00DB431E491340CB603B685B6803F4003351
:1020FC00002B06D0194B5A681849BB6913434B6027
:10210C0006E0164B5A68BB69DB43144913404B601D
:10211C003B685B6803F48033002B21D00F4B1A68AB
:10212C000E49BB6913430B6021E000BF0000321065
:10213C0000003110000022100000211000001210CD
:10214C000000111000100240000001400008014086
:10215C00000C01400010014000140140000401403B
:10216C000B4B1A68BB69DB43094913400B607B6A54
:10217C0001337B623B681A687B6A22FA03F3002BFB
:10218C007FF48EAE00BF00BF2C37BD4680BC7047BD
:10219C000004014080B485B000AF78600B467B80B2
:1021AC007B689A687B881340002B02D00123FB7359
:1021BC0001E00023FB73FB7B18461437BD4680BC43
:1021CC00704780B483B000AF78600B467B801346B9
:1021DC007B707B78002B03D07A887B681A6103E0D4
:1021EC007B881A047B681A6100BF0C37BD4680BC23
:1021FC00704780B485B000AF78600B467B807B68FD
:10220C00DB68FB607A88FB6813401A04FB68D943CF
:10221C007B880B401A437B681A6100BF1437BD469C
:10222C0080BC704780B483B000AF78600B46FB7005
:10223C00094B1B69084A23F004031361FB78012B3B
:10224C0001D130BF02E040BF20BF20BF00BF0C3720
:10225C00BD4680BC704700BF00ED00E080B586B085
:10226C0000AF78607B68002B01D101236CE27B68A6
:10227C001B6803F00103002B00F08780924B5B6816
:10228C0003F00C03042B0CD08F4B5B6803F00C0396
:10229C00082B12D18C4B5B6803F48033B3F5803F71
:1022AC000BD1894B1B6803F40033002B6CD07B687B
:1022BC005B68002B68D1012346E27B685B68B3F551
:1022CC00803F06D1804B1B687F4A43F480331360F8
:1022DC002EE07B685B68002B0CD17B4B1B687A4A29
:1022EC0023F480331360784B1B68774A23F48023E4
:1022FC0013601DE07B685B68B3F5A02F0CD1724BAB
:10230C001B68714A43F4802313606F4B1B686E4A41
:10231C0043F4803313600BE06B4B1B686A4A23F465
:10232C0080331360684B1B68674A23F48023136067
:10233C007B685B68002B13D0FFF7DEFB386108E08D
:10234C00FFF7DAFB02463B69D31A642B01D903234E
:10235C00FAE15D4B1B6803F40033002BF0D014E062
:10236C00FFF7CAFB386108E0FFF7C6FB02463B6982
:10237C00D31A642B01D90323E6E1534B1B6803F4F6
:10238C000033002BF0D100E000BF7B681B6803F02A
:10239C000203002B63D04C4B5B6803F00C03002B47
:1023AC000BD0494B5B6803F00C03082B1CD1464B3C
:1023BC005B6803F48033002B16D1434B1B6803F08E
:1023CC000203002B05D07B681B69012B01D0012374
:1023DC00BAE13D4B1B6823F0F8027B685B69DB00BC
:1023EC00394913430B603AE07B681B69002B20D002
:1023FC00364B01221A60FFF77FFB386108E0FFF7CC
:10240C007BFB02463B69D31A022B01D903239BE1C8
:10241C002D4B1B6803F00203002BF0D02A4B1B68DA
:10242C0023F0F8027B685B69DB00274913430B60E0
:10243C0015E0264B00221A60FFF75EFB386108E0BE
:10244C00FFF75AFB02463B69D31A022B01D903232F
:10245C007AE11D4B1B6803F00203002BF0D17B6863
:10246C001B6803F00803002B3AD07B689B69002B98
:10247C0019D0174B01221A60FFF73EFB386108E0B8
:10248C00FFF73AFB02463B69D31A022B01D903230F
:10249C005AE10D4B5B6A03F00203002BF0D00120D4
:1024AC0000F0CCFA1CE00A4B00221A60FFF724FB68
:1024BC0038610FE0FFF720FB02463B69D31A022B71
:1024CC0008D9032340E100BF001002400000424243
:1024DC00800442429E4B5B6A03F00203002BE9D15D
:1024EC007B681B6803F00403002B00F0A68000231C
:1024FC00FB75974BDB6903F08053002B0DD1944B8C
:10250C00DB69934A43F08053D361914BDB6903F051
:10251C008053BB60BB680123FB758E4B1B6803F4B7
:10252C008073002B18D18B4B1B688A4A43F4807341
:10253C001360FFF7E1FA386108E0FFF7DDFA0246B5
:10254C003B69D31A642B01D90323FDE0814B1B6833
:10255C0003F48073002BF0D07B68DB68012B06D171
:10256C007B4B1B6A7A4A43F0010313622DE07B68B4
:10257C00DB68002B0CD1764B1B6A754A23F00103E8
:10258C001362734B1B6A724A23F0040313621CE040
:10259C007B68DB68052B0CD16D4B1B6A6C4A43F0D6
:1025AC00040313626A4B1B6A694A43F0010313620A
:1025BC000BE0674B1B6A664A23F001031362644B02
:1025CC001B6A634A23F0040313627B68DB68002BED
:1025DC0015D0FFF791FA38610AE0FFF78DFA024641
:1025EC003B69D31A41F28832934201D90323ABE001
:1025FC00574B1B6A03F00203002BEED014E0FFF7DD
:10260C007BFA38610AE0FFF777FA02463B69D31A86
:10261C0041F28832934201D9032395E04C4B1B6A5B
:10262C0003F00203002BEED1FB7D012B05D1484BAF
:10263C00DB69474A23F08053D3617B68DB69002B4D
:10264C0000F08180424B5B6803F00C03082B61D0D7
:10265C007B68DB69022B46D13F4B00221A60FFF7E7
:10266C004BFA386108E0FFF747FA02463B69D31A88
:10267C00022B01D9032367E0354B1B6803F0007371
:10268C00002BF0D17B681B6AB3F5803F08D1304B2F
:10269C005B6823F400327B689B682D4913434B60C5
:1026AC002B4B5B6823F474127B68196A7B685B6A3A
:1026BC000B43274913434B60274B01221A60FFF74A
:1026CC001BFA386108E0FFF717FA02463B69D31A88
:1026DC00022B01D9032337E01D4B1B6803F0007359
:1026EC00002BF0D02FE01C4B00221A60FFF704FAED
:1026FC00386108E0FFF700FA02463B69D31A022B57
:10270C0001D9032320E0124B1B6803F00073002B4C
:10271C00F0D118E07B68DB69012B01D1012313E0B8
:10272C000B4B5B68FB60FB6803F480327B681B6AB5
:10273C009A4206D1FB6803F470127B685B6A9A427A
:10274C0001D0012300E0002318461837BD4680BD98
:10275C0000100240007000406000424280B584B01E
:10276C0000AF786039607B68002B01D10123D0E089
:10277C006A4B1B6803F007033A689A4210D9674BFF
:10278C001B6823F0070265493B6813430B60634BDE
:10279C001B6803F007033A689A4201D00123B8E0A2
:1027AC007B681B6803F00203002B20D07B681B683E
:1027BC0003F00403002B05D0594B5B68584A43F4D3
:1027CC00E06353607B681B6803F00803002B05D0A3
:1027DC00534B5B68524A43F460535360504B5B68F5
:1027EC0023F0F0027B689B684D4913434B607B6878
:1027FC001B6803F00103002B40D07B685B68012B46
:10280C0007D1474B1B6803F40033002B15D1012370
:10281C007FE07B685B68022B07D1414B1B6803F0A0
:10282C000073002B09D1012373E03D4B1B6803F0AF
:10283C000203002B01D101236BE0394B5B6823F0C1
:10284C0003027B685B68364913434B60FFF754F90E
:10285C00F8600AE0FFF750F90246FB68D31A41F220
:10286C008832934201D9032353E02D4B5B6803F06C
:10287C000C027B685B689B009A42EBD1274B1B6870
:10288C0003F007033A689A4210D2244B1B6823F0DA
:10289C00070222493B6813430B60204B1B6803F073
:1028AC0007033A689A4201D0012332E07B681B6827
:1028BC0003F00403002B08D0194B5B6823F4E0628F
:1028CC007B68DB68164913434B607B681B6803F01D
:1028DC000803002B09D0124B5B6823F460527B6811
:1028EC001B69DB000E4913434B6000F021F80246D4
:1028FC000B4B5B681B0903F00F030A49CB5C22FAF4
:10290C0003F3094A1360094B1B681846FFF7B2F82A
:10291C00002318461037BD4680BD00BF0020024082
:10292C0000100240CC4E0008380000203C00002073
:10293C0080B487B000AF0023FB600023BB60002392
:10294C007B6100237B6000233B611E4B5B68FB605B
:10295C00FB6803F00C03042B02D0082B03D027E0F8
:10296C00194B3B6127E0FB689B0C03F00F03174AE4
:10297C00D35C7B60FB6803F48033002B10D0114BCD
:10298C005B685B0C03F00103114AD35CBB607B6892
:10299C000D4A02FB03F2BB68B2FBF3F37B6104E06C
:1029AC007B680C4A02FB03F37B617B693B6102E0B1
:1029BC00054B3B6100BF3B6918461C37BD4680BCCC
:1029CC00704700BF0010024000127A00E44E00086D
:1029DC00F44E000800093D0080B400AF024B1B68A8
:1029EC001846BD4680BC70473800002080B500AF4B
:1029FC00FFF7F2FF0246054B5B681B0A03F0070367
:102A0C000349CB5C22FA03F3184680BD0010024048
:102A1C00DC4E000880B500AFFFF7DEFF0246054B29
:102A2C005B68DB0A03F007030349CB5C22FA03F370
:102A3C00184680BD00100240DC4E000880B485B002
:102A4C0000AF78600A4B1B680A4AA2FB03235B0A9F
:102A5C007A6802FB03F3FB6000BFFB685A1EFA6046
:102A6C00002BF9D100BF00BF1437BD4680BC7047A6
:102A7C0038000020D34D621080B582B000AF786072
:102A8C007B68002B01D1012341E07B6893F83D303A
:102A9C00DBB2002B06D17B68002283F83C207868DF
:102AAC00FEF766FE7B68022283F83D207B681A687D
:102ABC007B6804331946104600F030FC7B68012219
:102ACC0083F846207B68012283F83E207B68012234
:102ADC0083F83F207B68012283F840207B68012229
:102AEC0083F841207B68012283F842207B68012215
:102AFC0083F843207B68012283F844207B68012201
:102B0C0083F845207B68012283F83D20002318467A
:102B1C000837BD4680BD000080B485B000AF78603A
:102B2C007B6893F83D30DBB2012B01D001233AE0F6
:102B3C007B68022283F83D207B681B68DA687B681F
:102B4C001B6842F00102DA607B681B68184A9342EA
:102B5C000ED07B681B68B3F1804F09D07B681B6873
:102B6C00144A934204D07B681B68134A934211D1D8
:102B7C007B681B689B6803F00703FB60FB68062BF4
:102B8C0010D07B681B681A687B681B6842F00102D6
:102B9C001A6007E07B681B681A687B681B6842F048
:102BAC0001021A60002318461437BD4680BC7047DA
:102BBC00002C0140000400400008004080B582B0A9
:102BCC0000AF78607B68002B01D1012341E07B686A
:102BDC0093F83D30DBB2002B06D17B68002283F8E2
:102BEC003C20786800F039F87B68022283F83D209D
:102BFC007B681A687B6804331946104600F08EFB1C
:102C0C007B68012283F846207B68012283F83E20F2
:102C1C007B68012283F83F207B68012283F84020E7
:102C2C007B68012283F841207B68012283F84220D3
:102C3C007B68012283F843207B68012283F84420BF
:102C4C007B68012283F845207B68012283F83D20B4
:102C5C00002318460837BD4680BD80B483B000AF52
:102C6C00786000BF0C37BD4680BC704780B584B01F
:102C7C0000AF786039603B68002B09D17B6893F812
:102C8C003E30DBB2012B14BF01230023DBB222E068
:102C9C003B68042B09D17B6893F83F30DBB2012BE6
:102CAC0014BF01230023DBB215E03B68082B09D1CC
:102CBC007B6893F84030DBB2012B14BF0123002357
:102CCC00DBB208E07B6893F84130DBB2012B14BF18
:102CDC0001230023DBB2002B01D001235EE03B6813
:102CEC00002B04D17B68022283F83E2013E03B6862
:102CFC00042B04D17B68022283F83F200BE03B6855
:102D0C00082B04D17B68022283F8402003E07B6807
:102D1C00022283F841207B681B680122396818461F
:102D2C0000F07CFD7B681B681E4A934207D17B68D0
:102D3C001B685A6C7B681B6842F400425A647B68BF
:102D4C001B68184A93420ED07B681B68B3F1804F06
:102D5C0009D07B681B68144A934204D07B681B68BB
:102D6C00124A934211D17B681B689B6803F00703DE
:102D7C00FB60FB68062B10D07B681B681A687B68AD
:102D8C001B6842F001021A6007E07B681B681A6836
:102D9C007B681B6842F001021A600023184610374A
:102DAC00BD4680BD002C01400004004000080040DE
:102DBC0080B582B000AF78607B681B681B6903F03C
:102DCC000203022B22D17B681B68DB6803F0020331
:102DDC00022B1BD17B681B686FF002021A617B68A7
:102DEC0001221A777B681B689B6903F00303002B95
:102DFC0003D0786800F076FA05E0786800F069FA9C
:102E0C00786800F078FA7B6800221A777B681B6878
:102E1C001B6903F00403042B22D17B681B68DB685D
:102E2C0003F00403042B1BD17B681B686FF00402B6
:102E3C001A617B6802221A777B681B689B6903F412
:102E4C004073002B03D0786800F04CFA05E07868EA
:102E5C0000F03FFA786800F04EFA7B6800221A778F
:102E6C007B681B681B6903F00803082B22D17B6865
:102E7C001B68DB6803F00803082B1BD17B681B68FD
:102E8C006FF008021A617B6804221A777B681B6852
:102E9C00DB6903F00303002B03D0786800F022FAFF
:102EAC0005E0786800F015FA786800F024FA7B6881
:102EBC0000221A777B681B681B6903F01003102B28
:102ECC0022D17B681B68DB6803F01003102B1BD12D
:102EDC007B681B686FF010021A617B6808221A77F6
:102EEC007B681B68DB6903F44073002B03D07868A4
:102EFC0000F0F8F905E0786800F0EBF9786800F07C
:102F0C00FAF97B6800221A777B681B681B6903F04F
:102F1C000103012B0ED17B681B68DB6803F00103F6
:102F2C00012B07D17B681B686FF001021A6178686E
:102F3C00FEF7C4F87B681B681B6903F08003802BC9
:102F4C000ED17B681B68DB6803F08003802B07D1F4
:102F5C007B681B686FF080021A61786800F0E9FCEE
:102F6C007B681B681B6903F04003402B0ED17B6808
:102F7C001B68DB6803F04003402B07D17B681B68A0
:102F8C006FF040021A61786800F0BEF97B681B682C
:102F9C001B6903F02003202B0ED17B681B68DB68B8
:102FAC0003F02003202B07D17B681B686FF02002F5
:102FBC001A61786800F0B4FC00BF0837BD4680BDCC
:102FCC0080B586B000AFF860B9607A600023FB75FD
:102FDC00FB6893F83C30012B01D10223AEE0FB6877
:102FEC00012283F83C207B680C2B00F29F8001A20D
:102FFC0052F823F035300008393100083931000817
:10300C0039310008753000083931000839310008B1
:10301C0039310008B730000839310008393100085F
:10302C0039310008F7300008FB681B68B96818468E
:10303C0000F0D6F9FB681B689A69FB681B6842F0C4
:10304C0008029A61FB681B689A69FB681B6822F08E
:10305C0004029A61FB681B689969BB681A69FB6872
:10306C001B680A439A6164E0FB681B68B9681846E0
:10307C0000F01CFAFB681B689A69FB681B6842F439
:10308C0000629A61FB681B689A69FB681B6822F4F2
:10309C0080629A61FB681B689969BB681B691A029C
:1030AC00FB681B680A439A6143E0FB681B68B968BC
:1030BC00184600F065FAFB681B68DA69FB681B6848
:1030CC0042F00802DA61FB681B68DA69FB681B686E
:1030DC0022F00402DA61FB681B68D969BB681A69C3
:1030EC00FB681B680A43DA6123E0FB681B68B9685C
:1030FC00184600F0AFFAFB681B68DA69FB681B68BE
:10310C0042F40062DA61FB681B68DA69FB681B68D1
:10311C0022F48062DA61FB681B68D969BB681B69A1
:10312C001A02FB681B680A43DA6102E00123FB7593
:10313C0000BFFB68002283F83C20FB7D1846183743
:10314C00BD4680BD80B584B000AF78603960002387
:10315C00FB737B6893F83C30012B01D10223B4E064
:10316C007B68012283F83C207B68022283F83D2097
:10317C007B681B689B68BB60BB6823F07703BB60F4
:10318C00BB6823F47F43BB607B681B68BA689A609A
:10319C003B681B68B3F5005F3ED0B3F5005F00F2EF
:1031AC008780B3F5805F00F08680B3F5805F7FD8B1
:1031BC00702B1AD0702B7BD8602B50D0602B77D80B
:1031CC00502B3CD0502B73D8402B58D0402B6FD861
:1031DC00302B64D0302B6BD8202B60D0202B67D8B1
:1031EC00002B5CD0102B5AD062E07B6818683B68CF
:1031FC0099683B685A683B68DB6800F0F0FA7B68BA
:10320C001B689B68BB60BB6843F07703BB607B6843
:10321C001B68BA689A604FE07B6818683B689968CD
:10322C003B685A683B68DB6800F0D9FA7B681B681E
:10323C009A687B681B6842F480429A603CE07B6829
:10324C0018683B6859683B68DB681A4600F050FA0E
:10325C007B681B685021184600F0A7FA2CE07B68AD
:10326C0018683B6859683B68DB681A4600F06EFAD0
:10327C007B681B686021184600F097FA1CE07B689D
:10328C0018683B6859683B68DB681A4600F030FAEE
:10329C007B681B684021184600F087FA0CE07B68BD
:1032AC001A683B681B681946104600F07EFA03E06A
:1032BC000123FB7300E000BF7B68012283F83D20F3
:1032CC007B68002283F83C20FB7B18461037BD46F8
:1032DC0080BD80B483B000AF786000BF0C37BD46B2
:1032EC0080BC704780B483B000AF786000BF0C37EF
:1032FC00BD4680BC704780B483B000AF786000BF1F
:10330C000C37BD4680BC704780B483B000AF78608A
:10331C0000BF0C37BD4680BC7047000080B485B040
:10332C0000AF786039607B681B68FB607B68294A5A
:10333C0093420BD07B68B3F1804F07D07B68264A51
:10334C00934203D07B68254A934208D1FB6823F053
:10335C007003FB603B685B68FA681343FB607B6837
:10336C001C4A93420BD07B68B3F1804F07D07B682B
:10337C00194A934203D07B68184A934208D1FB68E0
:10338C0023F44073FB603B68DB68FA681343FB6013
:10339C00FB6823F080023B685B691343FB607B682E
:1033AC00FA681A603B689A687B68DA623B681A684C
:1033BC007B689A627B68074A934203D13B681A691F
:1033CC007B681A637B6801225A6100BF1437BD46C3
:1033DC0080BC7047002C01400004004000080040F5
:1033EC0080B487B000AF786039607B681B6A7B6102
:1033FC007B681B6A23F001027B681A627B685B683E
:10340C003B617B689B69FB60FB6823F07003FB608E
:10341C00FB6823F00303FB603B681B68FA681343EB
:10342C00FB607B6923F002037B613B689B687A69D4
:10343C0013437B617B681C4A93420CD17B6923F05C
:10344C0008037B613B68DB687A6913437B617B69AA
:10345C0023F004037B617B68134A934211D13B69CF
:10346C0023F480733B613B6923F400733B613B683D
:10347C005B693A6913433B613B689B693A69134347
:10348C003B617B683A695A607B68FA689A613B6871
:10349C005A687B685A637B687A691A6200BF1C376A
:1034AC00BD4680BC704700BF002C014080B487B083
:1034BC0000AF786039607B681B6A7B617B681B6A34
:1034CC0023F010027B681A627B685B683B617B6847
:1034DC009B69FB60FB6823F4E043FB60FB6823F40F
:1034EC004073FB603B681B681B02FA681343FB606C
:1034FC007B6923F020037B613B689B681B017A6925
:10350C0013437B617B681D4A93420DD17B6923F089
:10351C0080037B613B68DB681B017A6913437B6129
:10352C007B6923F040037B617B68144A934213D17F
:10353C003B6923F480633B613B6923F400633B618B
:10354C003B685B699B003A6913433B613B689B6931
:10355C009B003A6913433B617B683A695A607B680C
:10356C00FA689A613B685A687B689A637B687A69E7
:10357C001A6200BF1C37BD4680BC7047002C01404E
:10358C0080B487B000AF786039607B681B6A7B6160
:10359C007B681B6A23F480727B681A627B685B68A9
:1035AC003B617B68DB69FB60FB6823F07003FB60AD
:1035BC00FB6823F00303FB603B681B68FA6813434A
:1035CC00FB607B6923F400737B613B689B681B0287
:1035DC007A6913437B617B681D4A93420DD17B69E9
:1035EC0023F400637B613B68DB681B027A6913433D
:1035FC007B617B6923F480637B617B68144A934213
:10360C0013D13B6923F480533B613B6923F4005392
:10361C003B613B685B691B013A6913433B613B6847
:10362C009B691B013A6913433B617B683A695A6099
:10363C007B68FA68DA613B685A687B68DA637B6896
:10364C007A691A6200BF1C37BD4680BC704700BF48
:10365C00002C014080B487B000AF786039607B6883
:10366C001B6A3B617B681B6A23F480527B681A627D
:10367C007B685B687B617B68DB69FB60FB6823F4C0
:10368C00E043FB60FB6823F44073FB603B681B6802
:10369C001B02FA681343FB603B6923F400533B6144
:1036AC003B689B681B033A6913433B617B680F4A79
:1036BC00934209D17B6923F480437B613B685B694E
:1036CC009B017A6913437B617B687A695A607B68DA
:1036DC00FA68DA613B685A687B681A647B683A69F5
:1036EC001A6200BF1C37BD4680BC7047002C0140DD
:1036FC0080B487B000AFF860B9607A60FB681B6A71
:10370C007B61FB681B6A23F00102FB681A62FB6891
:10371C009B693B613B6923F0F0033B617B681B01B8
:10372C003A6913433B617B6923F00A037B617A6935
:10373C00BB6813437B61FB683A699A61FB687A69E1
:10374C001A6200BF1C37BD4680BC704780B487B07E
:10375C0000AFF860B9607A60FB681B6A7B61FB683C
:10376C001B6A23F01002FB681A62FB689B693B61C1
:10377C003B6923F470433B617B681B033A69134339
:10378C003B617B6923F0A0037B61BB681B017A69F9
:10379C0013437B61FB683A699A61FB687A691A6228
:1037AC0000BF1C37BD4680BC704780B485B000AFED
:1037BC00786039607B689B68FB60FB6823F0700362
:1037CC00FB603A68FB68134343F00703FB607B68BC
:1037DC00FA689A6000BF1437BD4680BC704780B44D
:1037EC0087B000AFF860B9607A603B60FB689B689B
:1037FC007B617B6923F47F437B613B681A027B68A6
:10380C001A43BB6813437A6913437B61FB687A697B
:10381C009A6000BF1C37BD4680BC704780B487B02F
:10382C0000AFF860B9607A60BB6803F01F03012237
:10383C0002FA03F37B61FB681A6A7B69DB431A406B
:10384C00FB681A62FB681A6ABB6803F01F0379688D
:10385C0001FA03F31A43FB681A6200BF1C37BD461A
:10386C0080BC704780B485B000AF786039607B68ED
:10387C0093F83C30012B01D1022346E07B680122F6
:10388C0083F83C207B68022283F83D207B681B6810
:10389C005B68FB607B681B689B68BB60FB6823F004
:1038AC007003FB603B681B68FA681343FB607B6822
:1038BC001B68FA685A607B681B68164A93420ED0E4
:1038CC007B681B68B3F1804F09D07B681B68124A78
:1038DC00934204D07B681B68104A93420CD1BB689E
:1038EC0023F08003BB603B685B68BA681343BB6022
:1038FC007B681B68BA689A607B68012283F83D205C
:10390C007B68002283F83C20002318461437BD4600
:10391C0080BC7047002C01400004004000080040AF
:10392C0080B483B000AF786000BF0C37BD4680BC5C
:10393C00704780B483B000AF786000BF0C37BD46D1
:10394C0080BC704780B582B000AF78607B68002B7C
:10395C0001D1012342E07B6893F84130DBB2002BAC
:10396C0006D17B68002283F840207868FDF772FF4F
:10397C007B68242283F841207B681B68DA687B68AB
:10398C001B6822F40052DA60786800F071FD7B68E5
:10399C001B681A697B681B6822F490421A617B6869
:1039AC001B685A697B681B6822F02A025A617B6883
:1039BC001B68DA687B681B6842F40052DA607B682B
:1039CC0000225A647B68202283F841207B682022E5
:1039DC0083F842207B6800225A630023184608377C
:1039EC00BD4680BD80B58AB002AFF860B9603B605F
:1039FC001346FB8000237B61FB6893F84130DBB2FC
:103A0C00202B6DD1BB68002B02D0FB88002B01D181
:103A1C00012366E0FB6800225A64FB68212283F8CC
:103A2C004120FEF769F87861FB68FA889A84FB6894
:103A3C00FA88DA84FB689B68B3F5805F08D1FB6871
:103A4C001B69002B04D10023FB61BB68BB6103E045
:103A5C00BB68FB610023BB612AE03B6800937B6978
:103A6C0000228021F86800F0F9FA0346002B01D0FF
:103A7C00032336E0FB69002B0BD1BB691B881A466C
:103A8C00FB681B68C2F308025A60BB690233BB6156
:103A9C0007E0FB691A78FB681B685A60FB69013305
:103AAC00FB61FB68DB8C9BB2013B9AB2FB68DA844E
:103ABC00FB68DB8C9BB2002BCFD13B6800937B69FE
:103ACC0000224021F86800F0C9FA0346002B01D00F
:103ADC00032306E0FB68202283F84120002300E04A
:103AEC00022318462037BD4680BD000080B5BAB011
:103AFC0000AF78607B681B681B68C7F8E4307B6894
:103B0C001B68DB68C7F8E0307B681B685B69C7F82B
:103B1C00DC300023C7F8D8300023C7F8D430D7F8EE
:103B2C00E43003F00F03C7F8D830D7F8D830002BA7
:103B3C000FD1D7F8E43003F02003002B09D0D7F8CD
:103B4C00E03003F02003002B03D0786800F0D1FBA9
:103B5C005BE2D7F8D830002B00F0DE80D7F8DC30F1
:103B6C0003F00103002B06D1D7F8E03003F4907377
:103B7C00002B00F0D180D7F8E43003F00103002BC8
:103B8C000BD0D7F8E03003F48073002B05D07B68A2
:103B9C005B6C43F001027B685A64D7F8E43003F0A5
:103BAC000403002B0BD0D7F8DC3003F00103002BFF
:103BBC0005D07B685B6C43F002027B685A64D7F8D3
:103BCC00E43003F00203002B0BD0D7F8DC3003F009
:103BDC000103002B05D07B685B6C43F004027B680F
:103BEC005A64D7F8E43003F00803002B11D0D7F84F
:103BFC00E03003F02003002B05D1D7F8DC3003F0C4
:103C0C000103002B05D07B685B6C43F008027B68DA
:103C1C005A647B685B6C002B00F0F281D7F8E430BF
:103C2C0003F02003002B08D0D7F8E03003F020037A
:103C3C00002B02D0786800F05CFB7B681B685B692A
:103C4C0003F04003002B14BF01230023DBB2C7F8A1
:103C5C00D4307B685B6C03F00803002B03D1D7F8DE
:103C6C00D430002B4FD0786800F066FA7B681B6864
:103C7C005B6903F04003002B41D07B681B68143355
:103C8C00C7F89C30D7F89C3053E8003FC7F8983001
:103C9C00D7F8983023F04003C7F8D0307B681B6806
:103CAC001433D7F8D020C7F8A820C7F8A430D7F819
:103CBC00A410D7F8A82041E80023C7F8A030D7F803
:103CCC00A030002BD9D17B68DB6B002B13D07B6829
:103CDC00DB6B7E4A5A637B68DB6B1846FEF75EF83B
:103CEC000346002B16D07B68DB6B5B6B7A68D26B60
:103CFC00104698470EE0786800F09CF90AE0786866
:103D0C0000F098F906E0786800F094F97B680022DE
:103D1C005A6475E100BF73E17B681B6B012B40F0AB
:103D2C004F81D7F8E43003F01003002B00F04881EA
:103D3C00D7F8E03003F01003002B00F04181002392
:103D4C00BB607B681B681B68BB607B681B685B681F
:103D5C00BB60BB687B681B685B6903F04003002B8E
:103D6C0000F0B6807B68DB6B1B685B68A7F8BE3025
:103D7C00B7F8BE30002B00F045817B689B8DB7F8FF
:103D8C00BE209A4280F03E817B68B7F8BE20DA856F
:103D9C007B68DB6B9B69202B00F088807B681B6841
:103DAC000C33C7F88830D7F8883053E8003FC7F891
:103DBC008430D7F8843023F48073C7F8B8307B682C
:103DCC001B680C33D7F8B820C7F89420C7F890308C
:103DDC00D7F89010D7F8942041E80023C7F88C301E
:103DEC00D7F88C30002BD9D17B681B6814337B67D8
:103DFC007B6F53E8003F3B673B6F23F00103C7F831
:103E0C00B4307B681B681433D7F8B420C7F8802013
:103E1C00FB67F96FD7F8802041E80023BB67BB6FC5
:103E2C00002BE1D17B681B6814333B663B6E53E877
:103E3C00003FFB65FB6D23F04003C7F8B0307B6897
:103E4C001B681433D7F8B020FA66BB66B96EFA6EED
:103E5C0041E800237B667B6E002BE3D17B6820223C
:103E6C0083F842207B6800221A637B681B680C3342
:103E7C00FB64FB6C53E8003FBB64BB6C23F010038A
:103E8C00C7F8AC307B681B680C33D7F8AC20BA652C
:103E9C007B65796DBA6D41E800233B653B6D002B6A
:103EAC00E3D17B68DB6B1846FDF73DFF7B68022294
:103EBC005A637B689A8D7B68DB8D9BB2D31A9BB25D
:103ECC001946786800F0BFF89CE000BF0942000872
:103EDC007B689A8D7B68DB8D9BB2D31AA7F8CE30AA
:103EEC007B68DB8D9BB2002B00F08E80B7F8CE3058
:103EFC00002B00F089807B681B680C33BB63BB6BA9
:103F0C0053E8003F7B637B6B23F49073C7F8C83096
:103F1C007B681B680C33D7F8C8207A643B64396C17
:103F2C007A6C41E80023FB63FB6B002BE3D17B68CD
:103F3C001B6814337B627B6A53E8003F3B623B6A2D
:103F4C0023F00103C7F8C4307B681B681433D7F81F
:103F5C00C4203A63FB62F96A3A6B41E80023BB6206
:103F6C00BB6A002BE3D17B68202283F842207B685C
:103F7C0000221A637B681B680C333B613B6953E876
:103F8C00003FFB60FB6823F01003C7F8C0307B6870
:103F9C001B680C33D7F8C020FA61BB61B969FA69A8
:103FAC0041E800237B617B69002BE3D17B68022213
:103FBC005A63B7F8CE301946786800F044F823E01D
:103FCC00D7F8E43003F08003002B09D0D7F8E030A9
:103FDC0003F08003002B03D0786800F023F914E081
:103FEC00D7F8E43003F04003002B0ED0D7F8E030C4
:103FFC0003F04003002B08D0786800F062F904E06D
:10400C0000BF02E000BF00E000BFE837BD4680BD46
:10401C0080B483B000AF786000BF0C37BD4680BC65
:10402C00704780B483B000AF786000BF0C37BD46DA
:10403C0080BC704780B483B000AF786000BF0C3791
:10404C00BD4680BC704780B483B000AF78600B462F
:10405C007B8000BF0C37BD4680BC704780B590B0EC
:10406C0000AFF860B9603B601346FB7150E0BB6C6D
:10407C00B3F1FF3F4CD0BB6C002B07D0FDF73CFDE0
:10408C0002463B68D31ABA6C9A4241D2FB681B6851
:10409C000C33BB62BB6A53E8003F7B627B6A23F440
:1040AC00D073FB63FB681B680C33FA6B7A633B635E
:1040BC00396B7A6B41E80023FB62FB6A002BE5D17C
:1040CC00FB681B6814337B617B6953E8003F3B61E1
:1040DC003B6923F00103BB63FB681B681433BA6BA9
:1040EC003A62FB61F9693A6A41E80023BB61BB693A
:1040FC00002BE5D1FB68202283F84120FB682022AD
:10410C0083F84220FB68002283F8402003230FE051
:10411C00FB681B681A68BB681340BA689A420CBFEC
:10412C0001230023DBB21A46FB799A429FD000236D
:10413C0018464037BD4680BD80B495B000AF78605E
:10414C007B681B680C337B637B6B53E8003F3B63E2
:10415C003B6B23F49073FB647B681B680C33FA6C29
:10416C003A64FB63F96B3A6C41E80023BB63BB6BAD
:10417C00002BE5D17B681B6814333B623B6A53E828
:10418C00003FFB61FB6923F00103BB647B681B6888
:10419C001433BA6CFA62BB62B96AFA6A41E800235A
:1041AC007B627B6A002BE5D17B681B6B012B19D1E1
:1041BC007B681B680C33FB60FB6853E8003FBB60FB
:1041CC00BB6823F010037B647B681B680C337A6C30
:1041DC00BA617B617969BA6941E800233B613B694B
:1041EC00002BE5D17B68202283F842207B680022DB
:1041FC001A6300BF5437BD4680BC704780B584B08D
:10420C0000AF78607B685B6AFB60FB680022DA8534
:10421C00FB680022DA84F868FFF70CFF00BF103748
:10422C00BD4680BD80B485B000AF78607B6893F8E4
:10423C004130DBB2212B3ED17B689B68B3F5805FAC
:10424C0014D17B681B69002B10D17B681B6AFB6047
:10425C00FB681B881A467B681B68C2F308025A600D
:10426C007B681B6A9A1C7B681A6208E07B681B6A75
:10427C00591C7A6811621A787B681B685A607B68D3
:10428C00DB8C9BB2013B9BB27A681946D184002B24
:10429C000FD17B681B68DA687B681B6822F0800290
:1042AC00DA607B681B68DA687B681B6842F0400246
:1042BC00DA60002300E0022318461437BD4680BCA8
:1042CC00704780B582B000AF78607B681B68DA6895
:1042DC007B681B6822F04002DA607B68202283F83E
:1042EC0041207868FFF794FE002318460837BD4636
:1042FC0080BD80B58CB000AF78607B6893F842309D
:10430C00DBB2222B40F0AE807B689B68B3F5805FFC
:10431C0017D17B681B69002B13D10023FB627B68D0
:10432C009B6ABB627B681B685B689BB2C3F3080328
:10433C009AB2BB6A1A807B689B6A9A1C7B689A62E9
:10434C0026E07B689B6AFB620023BB627B689B68F0
:10435C00B3F5805F07D07B689B68002B0AD17B6824
:10436C001B69002B06D17B681B685B68DAB2FB6AA1
:10437C001A7008E07B681B685B68DBB203F07F0394
:10438C00DAB2FB6A1A707B689B6A5A1C7B689A6269
:10439C007B68DB8D9BB2013B9BB27A681946D18559
:1043AC00002B5DD17B681B68DA687B681B6822F088
:1043BC002002DA607B681B68DA687B681B6822F471
:1043CC008072DA607B681B685A697B681B6822F014
:1043DC0001025A617B68202283F842207B6800220C
:1043EC005A637B681B6B012B35D17B6800221A63E7
:1043FC007B681B680C337B617B6953E8003F3B6136
:10440C003B6923F010037B627B681B680C337A6A70
:10441C003A62FB61F9693A6A41E80023BB61BB6906
:10442C00002BE5D17B681B681B6803F01003102B75
:10443C000AD10023FB607B681B681B68FB607B68F0
:10444C001B685B68FB60FB687B689B8D1946786812
:10445C00FFF7F9FD02E07868FFF7E3FD002302E0C7
:10446C00002300E0022318463037BD4680BD000013
:10447C0080B584B000AF78607B681B681B6923F43F
:10448C0040517B68DA687B681B680A431A617B6859
:10449C009A687B681B691A437B685B691343BB6032
:1044AC007B681B68DB6823F4B05323F00C037A6839
:1044BC001268B9680B43D3607B681B685B6923F493
:1044CC0040717B689A697B681B680A435A617B68F8
:1044DC001B682C4A934203D1FEF79CFAF86002E069
:1044EC00FEF784FAF860FA6813469B0013449A00AE
:1044FC001A447B685B689B00B2FBF3F3224AA2FB75
:10450C0003235B091901FA6813469B0013449A00B4
:10451C001A447B685B689B00B2FBF3F21A4BA3FB5B
:10452C0002035B09642000FB03F3D31A1B01323333
:10453C00154AA2FB03235B0903F0F0031944FA6844
:10454C0013469B0013449A001A447B685B689B00DB
:10455C00B2FBF3F20C4BA3FB02035B09642000FBE0
:10456C0003F3D31A1B013233074AA2FB03235B0963
:10457C0003F00F027B681B680A449A6000BF103777
:10458C00BD4680BD003801401F85EB51014B1868BA
:10459C00704700BF4400002070B500260C4D0D4C38
:1045AC00641BA410A64209D100F06CFC00260A4D35
:1045BC000A4C641BA410A64205D170BD55F8043BEF
:1045CC0098470136EEE755F8043B98470136F2E779
:1045DC002C4F00082C4F00082C4F0008304F0008BF
:1045EC00024B0146186800F05FB800BF4400002081
:1045FC00024B0146186800F00BB800BF44000020C5
:10460C0003460244934200D1704703F8011BF9E7BB
:10461C0038B50546002943D051F8043C0C1F002B3B
:10462C00B8BFE41800F0CAF81E4A1368104633B934
:10463C00636014602846BDE8384000F0C5B8A3425A
:10464C000AD921686218934201BF1A685B68521834
:10465C00226063600460EDE71A465B680BB1A3420D
:10466C00FAD911685018A0420BD120680144501897
:10467C0083421160DED118685B680144116053609D
:10468C00D8E702D90C232B60D4E7206821188B4281
:10469C0001BF19685B680918216063605460C9E741
:1046AC0038BD00BF04010020F8B5CD1C25F0030572
:1046BC0008350C2D38BF0C25002D064601DBA94210
:1046CC0003D90C2333600020F8BD00F077F82149A2
:1046DC000A6814469CB9204F3B6823B921463046E2
:1046EC0000F03CF838602946304600F037F8431C9F
:1046FC0023D10C233046336000F066F8E3E72368DF
:10470C005B1B17D40B2B03D923601C44256004E0DE
:10471C006368A2420CBF0B605360304600F054F843
:10472C0004F10B00231D20F00700C21ACCD01B1A79
:10473C00A350C9E722466468CCE7C41C24F00304E8
:10474C00A042E3D0211A304600F008F80130DDD148
:10475C00CFE700BF040100200801002038B500237A
:10476C00054D044608462B60FDF70CF9431C02D19D
:10477C002B6803B1236038BD240200200EB46FF007
:10478C00004100B59CB01DAB0290069007910491BE
:10479C000848094953F8042B0591006802A90193B4
:1047AC0000F074F80022029B1A701CB05DF804EB48
:1047BC0003B07047440000200802FFFF014800F0DE
:1047CC00FBBA00BF2C020020014800F0F6BA00BF73
:1047DC002C0200202DE9F0478E6882469E420C4642
:1047EC0090461F4638D88A8912F4906F32D02568CB
:1047FC0009690133A5EB010965694B4405EB4505D6
:10480C0005EBD5756D109D4238BF1D46530531D54E
:10481C002946FFF749FF064650B90C234FF0FF30ED
:10482C00CAF80030A38943F04003A381BDE8F087A8
:10483C004A46216900F0D0FAA38923F4906343F02F
:10484C008003A38126614E4426603E466561A5EB3C
:10485C000905A560BE4200D93E4632464146206855
:10486C0000F0C8FAA36822689B1B32440020A360A6
:10487C002260DBE72A4600F0D7FA06460028E1D191
:10488C0050462169FFF7C4FEC7E700002DE9F04F41
:10489C0098468B8907461B060D4614469DB00ED5CF
:1048AC000B6963B94021FFF7FFFE2860286120B92E
:1048BC000C233B604FF0FF30D1E040236B610023B1
:1048CC00099320238DF8293030234FF00109CDF8BE
:1048DC000C80DFF8A4818DF82A3023469A4613F811
:1048EC00012B0AB1252AF9D1BAEB040B0BD05B468C
:1048FC00224629463846FFF76DFF013000F0AA80AA
:10490C00099A5A4409929AF80030002B00F0A280C0
:10491C0000234FF0FF32CDE905230AF1010A04937D
:10492C0007938DF853301A935446052214F8011B43
:10493C00514800F043FA049AD8B9D00644BF20235A
:10494C008DF85330110744BF2B238DF853309AF850
:10495C0000302A2B15D0544600204FF00A0C079A31
:10496C00214611F8013B303B092B4ED9B0B10792CF
:10497C0014E0A0EB080309FA03F31343A2460493D3
:10498C00D2E7039B191D1B680391002BBBBF5B4235
:10499C0042F0020207930793B8BF049223782E2BA0
:1049AC000CD163782A2B35D1039B02341A1D1B685A
:1049BC000392002BB8BF4FF0FF330593DFF8C8A06C
:1049CC0003225046217800F0F9F940B14023A0EBC6
:1049DC000A0003FA00F0049B01340343049314F817
:1049EC00011B062225488DF8281000F0E7F9002855
:1049FC0038D0234B1BBB039B073323F0070308332F
:104A0C000393099B3344099367E70C4601200CFB85
:104A1C000232A5E700234FF00A0C19460134059326
:104A2C00204610F8012B303A092A03D9002BC5D0A7
:104A3C000591C3E7044601230CFB0121F0E703AB0E
:104A4C0000932A4638460F4B04A9AFF30080421C52
:104A5C000646D6D1AB895B063FF52CAF09981DB045
:104A6C00BDE8F08F03AB00932A463846054B04A9EA
:104A7C0000F07CF8EBE700BFF64E0008004F000892
:104A8C0000000000E1470008FC4E00082DE9F0474B
:104A9C00164699468A680B6907469342B8BF134677
:104AAC00336091F843200C46DDF820800AB10133C5
:104ABC0033602368990642BF33680233336025683C
:104ACC0015F0060506D104F1190AE36832689B1A41
:104ADC00AB4228DC94F84320131E226818BF012334
:104AEC0092062DD44946384604F14302C0470130A2
:104AFC0020D02368E56803F00603042B18BF0025BB
:104B0C0032684FF00006A36808BFAD1A226908BFCF
:104B1C0025EAE5759342C4BF9B1AED181A34B542C9
:104B2C001AD1002008E00123524649463846C047B6
:104B3C00013003D14FF0FF30BDE8F0870135C4E7F9
:104B4C003020E11881F843005A1C94F84510224497
:104B5C00023382F84310C5E7012322464946384602
:104B6C00C0470130E6D00136D9E700002DE9FF47F8
:104B7C000C46277E9146782F80469A460C9904F174
:104B8C00430207D8622F0AD8002F00F0D980582F83
:104B9C0000F0A48004F1420684F842703AE0A7F1D8
:104BAC006303152BF6D801A050F823F0114C000824
:104BBC00254C0008A14B0008A14B0008A14B000894
:104BCC00A14B0008254C0008A14B0008A14B000884
:104BDC00A14B0008A14B0008334D0008554C0008B0
:104BEC00154D0008A14B0008A14B0008554D0008BD
:104BFC00A14B0008554C0008A14B0008A14B000824
:104C0C001D4D00080B6804F142061A1D1B680A6052
:104C1C0084F842300123A4E0256808682E0600F1D0
:104C2C0004030AD505680B60002D03DA2D236D42B1
:104C3C0084F843300A235E4819E015F0400F0568EC
:104C4C000B6018BF2DB2EFE70B682568181D0860C4
:104C5C00280601D51D6802E06906FBD51D886F2F5B
:104C6C000CBF08230A235248002184F843106668BD
:104C7C00002EA8BF2168A660A4BF21F0040121600A
:104C8C000DB9002E4DD01646B5FBF3F103FB1157B1
:104C9C00C75D06F8017D2F46BB420D46F4D9082BA3
:104CAC000BD12368DF0708D5236961689942DEBF01
:104CBC00302306F8013C06F1FF36921B22614B466D
:104CCC0021464046CDF800A003AAFFF7DFFE0130D5
:104CDC004CD14FF0FF3004B0BDE8F087344884F875
:104CEC0045700E68236856F8045B1F060E6014D5D9
:104CFC00D90744BF43F0200323601DB9236823F078
:104D0C00200323601023AFE7236843F020032360C4
:104D1C007823284884F84530E3E75E0648BFADB2F7
:104D2C00E6E71646BBE70B6826681D1D60690D603B
:104D3C0035061B6801D5186002E07106FBD518809A
:104D4C00002316462361BAE70B681A1D0A601E6819
:104D5C0000213046626800F031F808B1801B6060B9
:104D6C0063682361002384F84330A8E73246494640
:104D7C0040462369D0470130ABD023689B0713D43E
:104D8C00E068039B9842B8BF1846A4E7012332465B
:104D9C0049464046D04701309BD00135E368039922
:104DAC005B1AAB42F2DCEBE7002504F11906F5E7E0
:104DBC00074F0008184F000870477047034610B59E
:104DCC00C9B202449342184601D1002003E0047892
:104DDC0001338C42F6D110BD0A44914200F1FF33ED
:104DEC0000D1704710B511F8014B914203F8014FF7
:104DFC00F9D110BD884210B501EB020402D98442EE
:104E0C00234607D8431EA14208D011F8012B03F802
:104E1C00012FF8E7014602448A4200D110BD13F875
:104E2C00014D02F8014DF7E7F8B5074614460E465A
:104E3C0021B91146BDE8F840FFF736BC22B9FFF79F
:104E4C00E7FB25462846F8BD00F014F8A0420FD227
:104E5C0021463846FFF728FC05460028F2D031469B
:104E6C002246FFF7B9FF31463846FFF7D1FBE9E799
:104E7C003546E7E751F8043C181F002BBCBF0B5814
:104E8C00C0187047F8B500BFF8BC08BC9E46704708
:0C4E9C00F8B500BFF8BC08BC9E4670478B
:104EA8000D0A2137534547313A202564230D0A005E
:104EB8000D0A2137534547323A202564230D0A0A43
:104EC8000A000000000000000000000001020304C6
:104ED8000607080900000000010203040203040594
:104EE800060708090A0B0C0D0E0F10100102232DDE
:104EF800302B2000686C4C006566674546470030DB
:104F08003132333435363738394142434445460027
:104F18003031323334353637383961626364656627
:044F28000000000085
:044F2C003101000847
:044F30000D01000867
:104F3400010101000008014000080140000801408F
:104F4400000C0140010000000200000010000000FD
:104F54000100000005000000020000000300000042
:104F6400070000001E0000000024F40010000000F0
:104F740001000000480000200000000000000000C4
:104F8400000000000000000000000000000000001D
:104F9400000000000000000000000000000000000D
:104FA40000000000000000000000000000000000FD
:104FB40000000000000000000000000000000000ED
:104FC40000000000000000000000000000000000DD
:084FD4000000000000000000D5
:0400000508001A09CC
:00000001FF
